:020000040800F2
:10000000D0100020790200084B1A000801190008DE
:10001000491A00087F0300081720000800000000AC
:100020000000000000000000000000004F1A00085F
:100030002F040008000000004D1A0008511A0008A3
:10004000930200089302000893020008930200083C
:10005000930200089302000893020008930200082C
:10006000930200089302000893020008810300082D
:10007000930200089302000893020008930200080C
:100080009302000800000000930200089302000899
:1000900093020008930200089302000893020008EC
:1000A00093020008930200089302000893020008DC
:1000B00093020008930200089302000893020008CC
:1000C00093020008930200089302000893020008BC
:1000D00093020008930200089302000893020008AC
:1000E000930200089302000893020008930200089C
:1000F0009302000893020008930200080000000029
:1001000000000000930200080000000093020008B5
:100110009302000800000000930200089302000808
:10012000930200089302000893020008930200085B
:100130009302000800000000000000009302000885
:100140009302000893020008000000000000000075
:10015000000000000000000000000000000000009F
:1001600000000000000000000000000093020008F2
:1001700093020008000000000000000000000000E2
:1001800000000000930200080000000000000000D2
:10019000000000000000000000000000000000005F
:1001A0000000000000000000930200089302000815
:1001B0009302000893020008930200080000000068
:1001C0000000000093020008000000000000000092
:1001D000930200089302000800F002F800F03CF8D7
:1001E0000AA090E8000C82448344AAF10107DA4592
:1001F00001D100F031F8AFF2090EBAE80F0013F0A8
:10020000010F18BFFB1A43F001031847D01F00006D
:10021000F01F0000103A24BF78C878C1FAD85207FE
:1002200024BF30C830C144BF04680C607047000070
:100230000023002400250026103A28BF78C1FBD8EF
:10024000520728BF30C148BF0B6070471FB501F08F
:10025000B7FF1FBD10B510BD00F058F81146FFF7ED
:10026000F5FF01F079FF00F076F803B4FFF7F2FF35
:1002700003BC00F07DF800000948804709480047AA
:10028000FEE7FEE7FEE7FEE7FEE7FEE7FEE7FEE746
:10029000FEE7FEE704480549054A064B70470000A3
:1002A000B91A0008D9010008D00A0020D010002097
:1002B000D00C0020D00C00204FF0000200B51346F7
:1002C00094469646203922BFA0E80C50A0E80C5076
:1002D000B1F12001BFF4F7AF090728BFA0E80C5027
:1002E00048BF0CC05DF804EB890028BF40F8042B20
:1002F00008BF704748BF20F8022B11F0804F18BF8D
:1003000000F8012B7047704770477047754600F042
:100310002BF8AE4605006946534620F00700854697
:1003200018B020B5FFF7B6FFBDE820404FF000063B
:100330004FF000074FF000084FF0000B21F00701CD
:10034000AC46ACE8C009ACE8C009ACE8C009ACE810
:10035000C0098D46704710B50446AFF300802046B3
:10036000BDE81040FFF781BF00487047700A0020C9
:1003700001491820ABBEFEE7260002007047FEE7E9
:10038000014800F093B80000600000200D490268A9
:100390008A4201D20C4901E00B492031D2B2142328
:1003A000083AB2FBF3F2436C02F01F0223F003039E
:1003B0001944816404498031C1640121914001657F
:1003C0007047000008040240000802400179074A13
:1003D00002EB81024265054A4432491E826501F002
:1003E0001F0201219140C16570470000FC080240D6
:1003F00030B5D0E913456560446D14B1D0E91645B8
:10040000656090F8444004F01F050124AC40056C81
:100410006C60046863608368102B036803D0996084
:100420000068C26030BD9A600068C16030BD70472E
:1004300072B6FEE770B590F825200024012123460E
:10044000022A07D00422C26380F8251080F82430E5
:10045000012429E00268156825F00E051560026880
:10046000156825F001051560826C156825F4807506
:10047000156090F84420056C02F01F0201FA02F2A8
:100480006A60D0E913255560426D32B1156825F4D4
:1004900080751560D0E91625556080F8251080F824
:1004A0002430816B01B18847204670BDF0B4016CE7
:1004B0000C6801680D6890F8442002F01F060422C1
:1004C00002FA06F3234211D06B070FD50B689B0687
:1004D00003D40B6823F004030B6090F8441001F080
:1004E0001F018A40016C4A60016B1DE0022303FA80
:1004F00006F727424FF0000C4FF0010218D0AF076B
:1005000016D50C68A40605D40C6824F00A040C6007
:1005100080F8252090F8441001F01F018B40016CF9
:100520004B6080F824C0C16A00291AD0F0BC08478B
:100530000823B340234214D02B0712D50B6823F0B5
:100540000E030B6090F84410036C01F01F0102FAD7
:1005500001F15960C26380F8252080F824C0416B06
:10056000E2E7F0BC7047000070B504000CD02B4AE5
:1005700021681420914209D2294A0A44B2FBF0F0C2
:100580008000606427480AE0012070BD234A52427F
:100590000A44B2FBF0F08000606420480838206410
:1005A000022084F825000A6847F6F0708243D4E9F7
:1005B00002031843D4E904352B431843A3691843B5
:1005C000E3691843236A1843104308602046FFF785
:1005D000DDFEA0680025B0F5804F00D16560A16CFC
:1005E00020790860D4E9130141606068401E032847
:1005F00008D82046FFF7EAFE606D0560D4E91601D1
:10060000416002E06565A565E565E563012084F864
:10061000250084F82450002070BD0000080402402A
:10062000F8FFFDBF0000024070B5044690F82400BA
:10063000002501280CD0012084F8240094F82560BE
:100640000020012E06D084F824000225284670BD23
:10065000022070BD022684F82560E06320680668E9
:1006600026F0010606602046FFF7C2FE206B002838
:100670002068016802D041F00E0106E021F004017B
:1006800001602068016841F00A010160A06C016806
:10069000C90303D5016841F480710160606D18B130
:1006A000016841F4807101602068016841F0010136
:1006B0000160CBE770B5044600F040F90546601CC8
:1006C00002D004484068044400F038F9401BA042BE
:1006D000FAD370BD040000202DE9F04FDFF820921E
:1006E000002301260324A9F1040B85B00F2709F18B
:1006F000040AABF1040EFAE006FA03F52A407CD0B6
:1007000091F804C00CF0030CBCF1010F02D0BCF155
:10071000020F26D1D0F808C0CDF800C04FEA430C34
:1007200004FA0CF8CDF810C0DDF800C02CEA080C73
:10073000CDF800C0D1F80C80DDF810C008FA0CF834
:10074000DDF800C048EA0C08C0F80880D0F804C002
:100750002CEA050C0D79C5F300159D4045EA0C0502
:1007600045600D79ED43AD070ED0C5684FEA4308EB
:1007700004FA08FC25EA0C05D1F808C00CFA08FCBC
:100780004CEA050CC0F80CC00D7905F00305022DEC
:1007900016D1DD0800EB850CCDF808C0DCF8208010
:1007A0005D074FEAD56C07FA0CF528EA05080D69D4
:1007B00005FA0CF5DDF808C045EA0805CCF820502C
:1007C00005684FEA430CCDF808C004FA0CFC25EA92
:1007D0000C0591F804C00CF00308DDF808C008FA15
:1007E0000CF848EA0508C0F800804D6815F4403F51
:1007F0007CD0444DD5F860C000E077E04CF0010CAF
:10080000C5F860C02D6E23F0030C05F001050095BE
:100810003D4D65440295AD684FEA837C4FEA1C78F4
:1008200007FA08FC25EA0C05B0F1904F06D0DFF876
:10083000DCC0604505D14FF0010C20E04FF0000C0A
:100840001DE0DFF8CCC0604502D14FF0020C16E08D
:10085000DFF8C0C0604502D14FF0030C0FE0DFF8B5
:10086000B8C0604502D14FF0040C08E0DFF8ACC01E
:10087000604502D14FF0050C01E04FF0060C0CFA78
:1008800008FC4CEA050C029DC5F808C0D9F80050D8
:10089000CC46D1F8048095435FEAC82800D51543BB
:1008A000CCF80050DAF80050D446D1F804809543D3
:1008B0005FEA882800D51543CCF80050DBF80050DB
:1008C000DC46D1F8048095435FEA883800D51543AB
:1008D000CCF80050DEF80050F446D1F8048095437F
:1008E0005FEAC83800D51543CCF800505B1C0A6895
:1008F00032FA03F57FF400AF05B0BDE8F08F0000D9
:1009000008040140001002400000014000040048BB
:1009100000080048000C004800100048001400487F
:10092000426921EA02030A4043EA024181617047B9
:100930000AB1816170478162704700000148806898
:10094000704700000400002002488168426811449A
:10095000816070470400002010B50024032000F0DF
:1009600073F80F2000F008F808B1012401E000F04E
:1009700025F8204610BD000070B50E4E0546002437
:10098000706898B14FF47A71B1FBF0F00A490968C8
:10099000B1FBF0F000F0FAFB40B9102D06D20022B6
:1009A0002946501E00F030F8356000E00124204652
:1009B00070BD000004000020100000200A4882B032
:1009C000016E41F001010166016E01F0010100912B
:1009D000816D41F080518165806D00F08050009004
:1009E00002B000F0A1B8000000100240002809DBAE
:1009F00000F01F02012191404009800000F1E02039
:100A0000C0F8001170470000F0B40E4B1B680C4694
:100A1000C3F30223C3F10705042D00D90425191DD2
:100A2000072901D2002300E0DB1E012606FA05F1AA
:100A3000491E214099409E40761E16403143F0BC2D
:100A400001F07ABB0CED00E0064900F007020868EF
:100A50004FF6FF03184040EA0220034A10430860A3
:100A6000704700000CED00E00000FA052B492C4B0C
:100A70000A6832214A432B4940B1B0F5007F08682B
:100A800029D020F4C06040F480602CE00868C0F3F6
:100A90004120022804D051F8800F20F4807022E019
:100AA000D1F8800020F48070C1F88000086820F43C
:100AB000C06040F400700860B2FBF3F0401C00E03E
:100AC000401E4A69520501D50028F9D14869400500
:100AD0000AD503207047C0F34120022806D051F800
:100AE000800F40F48070086000207047D1F88000CB
:100AF00040F48070C1F88000086820F4C06040F4C1
:100B000000700860B2FBF3F0401C00E0401E4A6930
:100B10005205DBD50028F9D1D8E7000010000020ED
:100B200040420F00007000400248816841F480415B
:100B300081607047007000402DE9F0470E460500C7
:100B40004FF0000725D0DFF8AC81D8F8000000F0A6
:100B50000F00B0420CD2D8F8001021F00F01314341
:100B6000C8F80010D8F8000000F00F00B04210D113
:100B70002968614CC80741F2883A5AD06868DFF8A2
:100B80007C91032808D0022820682DD04005002839
:100B90002CDB0120BDE8F08720688001F9D5E068F2
:100BA00000F00302E068C0F30310401C032A19D0D0
:100BB000534A00BFB2FBF0F0E268C2F30622504392
:100BC000E268C2F34162521C5200B0FBF2F04845A9
:100BD00017D9A06810F0F00F0CD0880711D5A868BD
:100BE00040B10EE0474AE5E78003D0E700F092F815
:100BF000484506D9A06820F0F00040F08000A060D1
:100C00008027A068696820F003000843A060FFF710
:100C100095FE814606E000BFFFF790FEA0EB0901BC
:100C200051453AD8A068696800F00C00B0EB810F1C
:100C3000F2D12868810714D5400703D5A06840F495
:100C4000E060A0602878000705D5A06820F4605017
:100C500040F4E060A060A068A96820F0F0000843BC
:100C600004E0802F03D1A06820F0F000A060D8F845
:100C70000010404601F00F01B14216D9016821F081
:100C80000F0131430160FFF759FE074607E000BF3F
:100C9000FFF754FEC11B514501D903207AE7D8F86C
:100CA000000000F00F00B042F2D12878400705D5CF
:100CB000A068E96820F4E0600843A0602878000795
:100CC00006D5A068296920F4605040EAC100A06000
:100CD00000F020F8A1680C4AC1F30311515C01F047
:100CE0001F01C8400949086009480068BDE8F0478D
:100CF000FFF742BE002002400010024000B4C404CE
:100D00000024F40000127A00CA210008100000201C
:100D100004000020184910B58868C0F38102174804
:100D2000012A0BD08A684310C2F38102022A06D03E
:100D30008A68C2F38102032A03D0002010BD18463E
:100D400010BDCA6802F00304CA68C2F30312521C41
:100D5000032C02D0B0FBF2F001E0B3FBF2F0CA6862
:100D6000C968C2F306225043C1F34161491C4900DE
:100D7000B0FBF1F010BD0000001002400024F400B0
:100D80002DE9F84304007AD02078FA4DC00747D007
:100D9000A868E96800F00C0001F003010C2802D0FB
:100DA000082817D001E0032914D06068B0F5803F0F
:100DB00017D0B0F5A02F286817D020F48030286015
:100DC000286820F4802028606068E0B1FFF7B6FD55
:100DD000064614E02868800322D560680028D2D037
:100DE0001EE0286840F48030EDE740F48020286061
:100DF000F7E700BFFFF7A2FD801B642870D82868C2
:100E00008003F7D50CE0FFF799FD064605E000BF2B
:100E1000FFF794FD801B6428F0D828688003F7D47E
:100E2000207880074CD5A868E96800F00C0001F034
:100E300003010C2802D004280DD001E002290AD0B9
:100E4000E068002828682BD040F480702860FFF705
:100E500075FD064619E02868400502D5E0680028BF
:100E600091D06868217C20F0FE4040EA0160686013
:100E7000C1480068FFF780FD002800D120E076E13E
:100E8000FFF75CFD801B0228B8D828684005F7D51D
:100E90006868217C20F0FE4040EA016068600FE055
:100EA00020F480702860FFF749FD064605E000BF8A
:100EB000FFF744FD801B0228A0D828684005F7D41E
:100EC0002078000729D560690028D5F8940013D050
:100ED00040F00100C5F89400FFF730FD064606E03B
:100EE00090E000BFFFF72AFD801B022886D8D5F8C6
:100EF00094008007F6D510E020F00100C5F89400BA
:100F0000FFF71CFD064604E0FFF718FD801B0228D2
:100F100078D8D5F894008007F6D42078400761D5BA
:100F2000A86D0026C00008D4A86D40F08050A865C8
:100F3000A86D012600F08050009090480168C90516
:100F400011D40168804641F480710160FFF7F6FC1E
:100F5000074604E0FFF7F2FCC01B022852D8D8F87D
:100F60000000C005F6D5A068012815D00528D5F8E1
:100F7000900016D020F00100C5F89000D5F8900040
:100F800020F00400C5F89000A06841F28838B8B19C
:100F9000FFF7D4FC07460EE0D5F8900040F00100C2
:100FA000F0E740F00400C5F89000F5E7FFF7C6FC55
:100FB000C11B414526D8D5F890008007F6D50CE036
:100FC000FFF7BCFC074604E0FFF7B8FCC11B414536
:100FD00018D8D5F890008007F6D41EB1A86D20F07F
:100FE0008050A8652078800629D5A0690028D5F80A
:100FF000980013D040F00100C5F89800FFF79EFC60
:10100000064606E077E000BFFFF798FC801B022849
:1010100077D8D5F898008007F6D510E020F00100C9
:10102000C5F89800FFF78AFC064604E0FFF786FC47
:10103000801B022865D8D5F898008007F6D4E069AF
:10104000F0B3A968C1F38101032961D0022828689F
:1010500020F0807028600BD0E86820F00300E86082
:10106000E86847490840E860FFF768FC04464BE041
:10107000FFF764FC064604E0FFF760FC801B0228D3
:101080003FD828688001F7D4F4E908016FF00F0217
:1010900002EB01110843218A5204490802EB415135
:1010A000A26841EA02210843217D4FF07E424908AF
:1010B00002EB41610843217B40EAC160E96800E03E
:1010C00062E0304A11400843E860286840F08070D0
:1010D0002860E86840F08070E860FFF72FFC044665
:1010E00005E000BFFFF72AFC001B022809D828688A
:1010F0008001F7D548E004E0FFF720FC001B022840
:1011000002D90320BDE8F88328688001F4D43BE0CD
:101110000128F7D0E868226A00F00301914226D145
:10112000616A00F0F0020901103991421FD1A26AF0
:1011300000F4FE41B1EB022F19D194F82C2000F0FD
:101140007841B1EBC26F12D1218E00F4C002490880
:101150004905A1F50011914209D194F8341000F02D
:10116000C06049084906A1F1007181420CD00120FC
:10117000C8E700000010024004000020007000409A
:10118000FFFFEEFE0C809F010020BBE710B5401E64
:10119000B0F1807F01D3012010BD4FF0E0246061E9
:1011A0000F21601700F0C8FF0020A0610720206118
:1011B000002010BDF0B590F83C20012A3AD001255E
:1011C00080F83C50022280F83D2003685A689C68F1
:1011D000194E1A4FB34201D0BB4204D122F4700C15
:1011E0004A6842EA0C02DFF858C002EA0C02D1F861
:1011F00000C04CEA020CC3F804C00268B2420DD031
:10120000B2F1804F0AD00F4B9A4207D00E4B9A4250
:1012100004D0BA4202D00D4B9A4204D1896824F01E
:1012200080031943916080F83D50002180F83C1004
:101230000846F0BD0220F0BD002C01400034014002
:101240008FFFFFFD00040040000800400040014007
:1012500010B5040003D094F83D0010B107E0012060
:1012600010BD002084F83C00204600F023F8022046
:1012700084F83D00211D206800F026FC012084F840
:10128000480084F83E0084F83F0084F8400084F869
:10129000410084F8420084F8430084F8440084F854
:1012A000450084F8460084F8470084F83D0000209B
:1012B00010BD000038B5054600681349884221D1A9
:1012C0001248816D41F002018165806D114C00F082
:1012D000020000900E4820603D2060601020A06059
:1012E00000208021C4E90301490061618900C4E94B
:1012F000061020622046FFF737F908B1FFF798F88B
:101300006C62A56238BD000000040040001002407D
:10131000080002406000002070B5044690F83C00D0
:101320000025012814D0012684F83C60022084F8AE
:101330003D0022689068364B184020F47F40906052
:10134000086870282ED010DC10F00F0F03D021E0B9
:101350004FF0020070BD4FEA2012072A1AD2DFE8D0
:1013600002F0525252524A3840002A4BC21A984256
:1013700049D009DCB0F5805F0DD0B0F5005F1CD01E
:10138000B0F1101F06D13EE0102A3CD0202A3AD0FE
:10139000502A38D0012584F83D60002084F83C00B4
:1013A000284670BDCB68D1E90121206800F066FCB9
:1013B0002068816841F0770109E0CB68D1E901211B
:1013C000206800F05BFC2068816841F48041816006
:1013D000E1E7CA684968206800F0FAFD50212068FA
:1013E00006E0CA684968206800F003FE60212068B2
:1013F00000F04EFCCFE7CA684968206800F0E8FDBD
:1014000040212068F4E7226801461046F0E700001A
:1014100088FFCEFF200010007047000010B586B096
:10142000044614216846FEF747FF0E4920688842AB
:1014300015D10D48C16C41F00101C164C06C00219F
:1014400000F001000590402000900220CDE901014C
:10145000CDE9031069464FF09040FFF73DF906B023
:1014600010BD0000000400400010024070B50446AA
:1014700090F83C0000260D4601280BD0012084F88E
:101480003C000C2A4AD007DC82B1042A20D0082A6A
:1014900006D131E0022070BD102A53D0142A63D047
:1014A0000126002084F83C00304670BD206800F022
:1014B000F9FB2068816941F0080181612068816938
:1014C00021F004018161206881692A69114311E0DA
:1014D000206800F035FC2068816941F40061816179
:1014E0002068816921F480618161206881692A69AD
:1014F00041EA02218161D4E7206800F069FC20689C
:10150000C16941F00801C1612068C16921F004018D
:10151000C1612068C1692A69114311E0206800F0A7
:101520009FFC2068C16941F40061C1612068C16904
:1015300021F48061C1612068C1692A6941EA022100
:10154000C161AEE7206800F0D3FC2068016D41F076
:10155000080101652068016D21F004010165206822
:10156000016D2A69114311E0206800F0F9FC206840
:10157000016D41F4006101652068016D21F4806115
:1015800001652068016D2A6941EA0221016588E749
:1015900010B5040003D094F83D0010B107E001201D
:1015A00010BD002084F83C00204600F022F8022004
:1015B00084F83D00211D206800F086FA012084F89F
:1015C000480084F83E0084F83F0084F8400084F826
:1015D000410084F8420084F8430084F8440084F811
:1015E000450084F8460084F8470084F83D00002058
:1015F00010BD70470021014800F002B9140000201E
:10160000704700002DE9F04117460D0004464FF0E9
:10161000000610D0042D15D0082D1AD00C2D1FD087
:10162000102D24D094F84300022827D094F84300CA
:10163000012826D07CE094F83E0002281ED094F8C1
:101640003E00F5E794F83F00022817D094F83F00D9
:10165000EEE794F84000022810D094F84000E7E745
:1016600094F84100022809D094F84100E0E794F88A
:101670004200022802D094F84200D9E70220BDE8D7
:10168000F08107B993BB5349534ADFF850C1022098
:1016900055B1042D19D0082D29D00C2D38D0102D7E
:1016A00048D084F8430047E084F83E00606AC16295
:1016B000606A39460263606AC0F834C02268606AB2
:1016C0003432FEF7B1FF88B938E084F83F00A06AF1
:1016D000C162A06A39460263A06AC0F834C02268B9
:1016E000A06A3832FEF7A0FF00B92CE020E084F8B1
:1016F0004000E06AC162E06A39460263E06AC0F80D
:1017000034C02268E06A3C32FEF78EFF80B91FE0E9
:1017100084F84100206BC162206B39460263206B64
:10172000C0F834C02268206B4032FEF77DFFA0B1C4
:101730000120A4E784F84200012648E02068C1683F
:1017400041F400710DE02068C16841F4806108E057
:101750002068C16841F4006103E02068C16841F479
:101760008051C16001222946206800F005FA1C4919
:1017700020681C4A1C4B884209D0904207D09842EE
:1017800005D01A4DA84202D0194DA84203D1456C8C
:1017900045F400454564206888420CD0B0F1804F84
:1017A00009D01449884206D01349884203D0904298
:1017B00001D0984207D18168104A1140062906D00D
:1017C000B1F5803F03D0016841F00101016030466E
:1017D00055E70000931B0008F11B0008291C0008B6
:1017E000002C014000340140004001400044014011
:1017F00000480140000400400008004007000100CC
:1018000070B50D0004464FF0000607D0042D0CD033
:10181000082D11D00C2D16D0012655E02068C16886
:1018200021F40071C160606A13E02068C16821F48E
:101830008061C160A06A0CE02068C16821F4006189
:10184000C160E06A05E02068C16821F48051C16090
:10185000206BFEF7EFFD00222946206800F08CF98E
:10186000224B41F2111120688A0098420BD0204B84
:10187000984208D01F4B984205D01F4B984202D087
:101880001E4B984209D1036A0B4206D1036A1342E8
:1018900003D1436C23F4004343642068036A0B4282
:1018A00006D1016A114203D1016821F001010160F2
:1018B00001205DB1042D0CD0082D0DD00C2D0ED0C3
:1018C000102D0FD084F84300304670BD84F83E00E0
:1018D000FAE784F83F00F7E784F84000F4E784F87B
:1018E0004100F1E784F84200EEE70000002C0140DF
:1018F00000340140004001400044014000480140E4
:10190000FEE700000D4808B5816C41F004018164D8
:10191000816C01F004010091816C41F0010181644E
:10192000806C002200F00100009011460B20FFF7B0
:101930006BF8BDE808400B20FFF758B800100240D4
:1019400010B586B014216846FEF7B6FC1648C16C87
:1019500041F02001C164C16C01F020010591C16C0E
:1019600041F00101C164C16C01F001010591C16C3C
:1019700041F00401C164C06C0C4C00F004000590FF
:10198000012210212046FEF7D3FF102000900120F5
:101990000190002002900320039069462046FEF744
:1019A0009BFE06B010BD0000001002400008004879
:1019B00010B58EB000240794089409940A940B94EF
:1019C0000C941C2168460D94FEF776FC1D481C49BA
:1019D000C0E90014C721C0E9024104618461FFF736
:1019E00037FC08B1FEF724FD4FF48050079007A99B
:1019F0001448FFF791FC08B1FEF71AFD1148FFF7F4
:101A0000C7FD08B1FEF714FD0B940BA90D480D940A
:101A1000FFF7D0FB08B1FEF70BFD6020CDE9000415
:101A200002940022694607480494FFF71FFD08B19D
:101A3000FEF7FEFC0348FFF7F1FC0EB010BD0000FE
:101A40000004004014000020FEE7FEE770477047E6
:101A5000FEF77ABF10B594B038216846FEF72CFC2B
:101A600014210EA8FEF728FC0020FEF7FFFF01203E
:101A700000900004019002200324CDE907045021C6
:101A8000CDE909010B900C900D906846FFF778F9AD
:101A900008B172B6FEE70F20CDE90E0400201090C9
:101AA0001190129004210EA8FFF746F8002801D0EB
:101AB00072B6FEE714B010BD0248016841F470012F
:101AC0000160704788ED00E02DE9F0430268234B88
:101AD000234D244E244C4FF08049984207D048456E
:101AE00005D0A84203D0B04201D0A04203D122F0D9
:101AF00070074A683A431D4FDFF874C0DFF87480FE
:101B000098420DD048450BD0A84209D0B04207D02A
:101B1000A04205D0B84203D0604501D0404503D172
:101B200022F44075CA682A434D6922F080022A4394
:101B300002608A68C2620A688262984207D0A04244
:101B400005D0B84203D0604501D0404501D10969B4
:101B5000016301214161BDE8F0830000002C0140D8
:101B600000040040000800400034014000400140F3
:101B7000004401400048014010B501F01F0301215D
:101B8000046A99408C430462016A9A4011430162DD
:101B900010BD10B5846A0121626A824205D12177A5
:101BA000C069F8B984F83E101CE0A26A824206D1EE
:101BB00002222277C069A8B984F83F1012E0E26AD5
:101BC000824206D104222277C06958B984F84010B5
:101BD00008E0226B824205D108222277C06908B949
:101BE00084F841102046FFF705FD0020207710BD46
:101BF00010B5846A616A814201D101200DE0A16AB9
:101C0000814201D1022008E0E16A814201D1042031
:101C100003E0216B814201D1082020772046FFF7A5
:101C2000EFFC0020207710BD10B5846A0121626AA4
:101C3000824203D1217784F83E1019E0A26A8242E1
:101C400004D10220207784F83F1011E0E26A82423A
:101C500004D10420207784F8401009E0226B8242EE
:101C600004D10820207784F8411001E084F83D1069
:101C70002046FFF7D1FB0020207710BD10B5846807
:101C800042EA032224F47F440A432243826010BDC7
:101C90008268034B1A400A4342F007018160704793
:101CA0008FFFCFFF2DE9F043026A22F001020262AA
:101CB000056A436882691C4C25F0020522400C68C5
:101CC00022F0030214438A68194E2A43174D194F14
:101CD000DFF864C0DFF86490A84207D0B04205D0B6
:101CE000B84203D0604501D0484506D122F008082B
:101CF000CA6842EA080222F00402A84207D0B042B1
:101D000005D0B84203D0604501D0484505D14D69A2
:101D100023F440731D438B692B43436084614968FE
:101D200041630262BDE8F0838FFFFEFF002C01409B
:101D3000003401400040014000440140004801409F
:101D4000F0B5026A22F010020262056A42688369F5
:101D5000194C1B4E23400C6823F4407343EA0424BF
:101D600025F020038D6843EA0513144DA84201D0E5
:101D7000B04206D1CF6823F0800343EA071323F073
:101D80004003A8420AD0B04208D00E4DA84205D068
:101D90000D4DA84202D00D4DA84207D14D6922F445
:101DA000406242EA85028D6942EA850242608461AE
:101DB000496881630362F0BDFF8FFFFE002C014084
:101DC000003401400040014000440140004801400F
:101DD000F0B5026A22F480720262056A4368C26941
:101DE000194C1B4E22400C6822F00302144325F4C8
:101DF00000728D6842EA0522144DA84201D0B0421B
:101E000006D1CF6822F4006242EA072222F48062FF
:101E1000A8420AD0B04208D00E4DA84205D00E4DBF
:101E2000A84202D00D4DA84207D14D6923F440537A
:101E300043EA05138D6943EA05134360C4614968A9
:101E4000C1630262F0BD00008FFFFEFF002C014065
:101E5000003401400040014000440140004801407E
:101E6000F0B5026A22F480520262056A4268C369D0
:101E7000194C1B4E23400C6823F4407343EA04249E
:101E800025F400538D6843EA0533144DA84201D070
:101E9000B04206D1CF6823F4004343EA073323F46A
:101EA0008043A8420AD0B04208D00E4DA84205D0C7
:101EB0000D4DA84202D00D4DA84207D14D6922F424
:101EC000404242EA85128D6942EA85124260C4614D
:101ED000496801640362F0BDFF8FFFFE002C0140E2
:101EE00000340140004001400044014000480140EE
:101EF00030B5026A22F480320262046A4268036DDD
:101F0000114D2B400D681D4324F400330C8943EA26
:101F100004430E4CA0420BD00D4CA04208D00D4CF7
:101F2000A04205D00C4CA04202D00C4CA04204D1DF
:101F30004C6922F4803242EA042242600565496815
:101F40008164036230BD00008FFFFEFF002C014062
:101F5000003401400040014000440140004801407D
:101F600030B5026A22F480120262046A4268036D8C
:101F7000114D24F400142B400D6843EA05230D890C
:101F800044EA05540D4DA8420BD00D4DA84208D08F
:101F90000C4DA84205D00C4DA84202D00B4DA842D2
:101FA00004D14D6922F4802242EA85224260036511
:101FB0004968C164046230BDFF8FFFFE002C014000
:101FC000003401400040014000440140004801400D
:101FD00010B5036A046A24F001040462846924F0E1
:101FE000F00444EA021423F00A020A438461026204
:101FF00010BD10B5036A23F0100303628369046AFD
:1020000023F4704343EA023224F0A00343EA0111AF
:102010008261016210BDFEE74BB110FB03F0000AC4
:1020200011FB03F1090A12FB03F2120A02E000207D
:1020300001460246090441EA0020104370470000AF
:1020400000200C49282200BF21F81020401C80B23B
:10205000F028F9D3F02000224FF49B6321F81020E0
:10206000401C80B29842F9D3024A00210248FFF78F
:10207000C9BA0000C0000020140000204FF49B6388
:10208000024A00210248FFF7BDBA0000C00000204C
:10209000140000202DE9F05F124F984691468A46C1
:1020A00083460025002405EB450643464A46514633
:1020B0005846FFF7B1FFA040000201D5882000E09C
:1020C000282004EBC601641CE4B227F81100182C88
:1020D000EBD36D1CEDB20A2DE4D3BDE8F05FFFF742
:1020E000CDBF0000C00000202DE9F0471E46DDF8FE
:1020F00020A0904689460A2817D20E4F002400EBF4
:1021000040055346324641464846FFF785FFA0400A
:10211000000201D5882000E0282004EBC501641CE2
:10212000E4B227F81100182CEBD3BDE8F047FFF715
:10213000A5BF0000C00000200907090E002804DB2D
:1021400000F1E02080F80014704700F00F0000F16B
:10215000E02080F8141D704708B5FEF7FDFBFFF77F
:1021600079FCFFF7EDFBFFF7CDFBFFF721FCFFF755
:1021700067FF114D002211462B78FF20FFF78AFFE1
:1021800010210E48FEF7CCFB4FF47A70FEF792FA5E
:10219000FFF756FF00242C700022FF231146012078
:1021A0000094FFF7A1FF1E20FEF784FA641CE4B23E
:1021B000652CF0D3EEE70000000000200008004886
:1021C0004FF04070E1EE100A704700000000000080
:1021D000000001020304060708090000FC210008B2
:1021E0000000002014000000140200081022000863
:1021F00014000020BC100000300200083200000073
:102200001000000001000000000000000024F400A5
:04000005080001D915
:00000001FF
