:020000040800F2
:1000000030050020F10100081F220008152000081B
:100010001D220008B5050008472700080000000061
:100020000000000000000000000000002322000883
:10003000B705000800000000212200082522000862
:100040000B0200080B0200080B0200080B0200085C
:100050000B0200080B0200080B0200080B0200084C
:100060000B0200080B0200080B0200080B0200083C
:100070000B0200080B0200080B0200080B0200082C
:100080000B020008000000000B0200080B02000831
:100090000B0200080B0200080B0200080B0200080C
:1000A0000B0200080B0200080B0200080B020008FC
:1000B0000B0200080B0200080B0200080B020008EC
:1000C0000B0200080B0200080B0200080B020008DC
:1000D0000B0200080B0200080B0200080B020008CC
:1000E0000B0200080B0200080B0200080B020008BC
:1000F0000B0200080B0200080B02000800000000C1
:10010000000000000B020008000000000B020008C5
:100110000B020008000000000B0200080B020008A0
:100120000B0200080B0200080B0200080B0200087B
:100130000B02000800000000000000000B02000895
:100140000B0200080B020008000000000000000085
:10015000000000000000000000000000000000009F
:100160000000000000000000000000000B0200087A
:100170000B0200080000000000000000000000006A
:10018000000000000B02000800000000000000005A
:10019000000000000000000000000000000000005F
:1001A00000000000000000000B0200080B02000825
:1001B0000B0200080B0200080B0200080000000000
:1001C000000000000B02000800000000000000001A
:1001D0000B0200080B020008DFF810D000F092F8C4
:1001E0000048004715290008AFF3008030050020C3
:1001F0000648804706480047FEE7FEE7FEE7FEE7C1
:10020000FEE7FEE7FEE7FEE7FEE7FEE791220008D5
:10021000D90100082DE9F05F0546002092469B4673
:1002200088460646814640241BE02846414647460C
:10023000224600F057F853465A46C01A914110D34F
:1002400011461846224600F03EF82D1A67EB0108C9
:100250004F4622460120002100F035F817EB000937
:100260004E41201EA4F10104DFDC484631462A46F7
:100270004346BDE8F09FD2B201E000F8012B491ED1
:10028000FBD270470022F6E710B513460A46044633
:100290001946FFF7F0FF204610BD30B50B4601466A
:1002A00000202022012409E021FA02F59D4205D315
:1002B00003FA02F5491B04FA02F52844151EA2F1BF
:1002C0000102F1DC30BD202A04DB203A00FA02F101
:1002D000002070479140C2F1200320FA03F3194334
:1002E00090407047202A04DB203A21FA02F00021D6
:1002F000704721FA02F3D040C2F120029140084336
:1003000019467047064C074D06E0E06840F00103CF
:1003100094E8070098471034AC42F6D3FFF760FF2B
:1003200098290008B82900082DE9F0410446002763
:100330000D46006801F079FE0646206801F071FE66
:1003400030435DD02068C1682E4E890105D5617F9C
:10035000012902D1217F01290BD0022D1DD0206857
:1003600001F063FEB8B120688168C1F3400169B152
:1003700011E00125244902E08F4232D27F1C02683D
:10038000D2435206F8D440210160E8E78168314049
:1003900041F010018160012D11D0206801F041FE73
:1003A00048B120688168C1F3400121B981683140BA
:1003B00041F020018160022D08D0032D04D00425D6
:1003C00000F056FF064617E00C25F9E70825F7E789
:1003D00000F04EFF801B05280ED920688068284257
:1003E0000AD0E06D40F01000E065206E40F00100A2
:1003F00020660120BDE8F081206880682842E7D1AE
:100400000020F7E7C0FFFF7F000040A370B504465F
:10041000006881688268C1F3400112F0010F28D0A2
:1004200039BB816801F00D01012914D18168124A9C
:100430001140891C816021680320086000F018FFCA
:10044000054612E000F014FF401B02280DD9206879
:100450008068C00709D0E06D40F01000E065206EB4
:1004600040F001002066012070BD20688068C00750
:10047000E8D1002070BD0000C0FFFF7F70B50446CA
:100480000068816811F0010F2DD18168174A11426F
:100490001AD18168D5432940491C816000F0E8FEEB
:1004A00006461BE0816811F0010F03D181682940E5
:1004B000491C816000F0DCFE801B02280ED92068F8
:1004C0000068C043C00709D0E06D40F01000E0654F
:1004D000206E40F001002066012070BD2068016898
:1004E000C943C907DED1002070BD00003F00008075
:1004F00070B5224C0020224D2070224800F0DAFC1A
:100500006421204800F058FC1E4800F019FB2178B7
:1005100045F82100491CC8B220700328EDD31948C2
:1005200000F042FD286840F6E4414843000B00EB30
:10053000400041001448616040F6B832008840F63F
:10054000B83350436A68B0FBF2F2E260A8686425F1
:100550005043B0FBF3F30C48801E00881B1A6B431A
:10056000094D20352D88281A93FBF0F31E33A36024
:10057000BDE8704005A002F0E7B8000000000020D0
:100580002400002030000020AA75FF1F564255535A
:100590003A2564206D56202C565245463A25642053
:1005A0006D56202C54454D503A25642043200D0AA9
:1005B00000000000FEE7704772B6FEE7F8B50026BF
:1005C0000446009690F858000D4601280BD00120F3
:1005D00084F858002046FFF719FF0100E06D04D0B1
:1005E00040F010002AE00220F8BD20F4885040F0CE
:1005F0000200E06520688268134B1A4005F08043D2
:100600001A4342F000428260104A20680EE0009BCC
:100610005B1C0093934209D3E06D20F0020040F090
:100620001000E06584F858600120F8BD8368DB0F96
:10063000EDD1E06D20F0020040F00100E06584F8AB
:1006400058600846F8BD0000C0FFFF3F02DE04000E
:100650002DE9F047044690F858009CB00E464FF044
:100660000009012815D0012084F8580000251795AD
:10067000189520684FF0A04840450ED1284F0097AC
:10068000384601F0D6FC8246206801F0D2FC60B109
:100690000EE002201CB0BDE8F087E06D40F02000C5
:1006A000E06584F858500120F4E7BAF1000F09D052
:1006B000E06D40F02000E0654FF0010984F85850EB
:1006C0004846E7E71748326840F61F71002A8268FB
:1006D00022F4604216D094F8383042EA433273680C
:1006E0001A438260D8F80820BB6802F0010203F0C8
:1006F00001031A43E2D1B36832681A4383688B431B
:100700001A430BE08260D8F80820BB6802F00102AF
:1007100003F001031A43D1D182688A438260CDE796
:1007200000010050000300502DE9F84F0027044657
:10073000009790F85800DFF8D8930D46B846012886
:1007400011D0012684F85860206801F06EFC60B179
:10075000E06D40F02000E0655FF0010784F858800C
:100760003846BDE8F88F0220FBE7D5E900210C23CD
:10077000206803EA91131844036B01F01F014FF046
:100780001F0C0CFA01FCC2F3846223EA0C038A40BA
:1007900013430363206801F048FC8246206801F09F
:1007A00040FC5AEA00003CD1AA6829682068B2F1EE
:1007B000004F37D001F049FC2068416921F0004129
:1007C000416120686969C268C2F3C1025200914068
:1007D0002A69042A31D000EB82002B68026EDFF810
:1007E00034C303F0F84302EA0C020B431A4342F00D
:1007F0000041016620682A69A96900EB8200026E47
:1008000022F080720A430266297F22682869012942
:1008100010D0002102EB8000026E22F000720A4329
:1008200002667DE0002201F010FC2068416941F081
:100830000041C5E74FF00071ECE7002101F0EBFB50
:10084000400320684FF0000172D001F0E4FB90FA01
:10085000A0F0B0FA80F1286842036ED090FAA0F0C0
:10086000B0FA80F0814204D100221146206801F0E4
:10087000FBFB0121206801F0CEFB400320684FF014
:1008800001015DD001F0C7FB90FAA0F0B0FA80F151
:100890002868420359D090FAA0F0B0FA80F0814263
:1008A00004D100220121206801F0DEFB0221206832
:1008B00001F0B1FB400320684FF0020148D001F085
:1008C000AAFB90FAA0F0B0FA80F12868420344D065
:1008D00090FAA0F0B0FA80F0814204D10022022107
:1008E000206801F0C1FB0321206801F094FB400364
:1008F00020684FF0030133D001F08DFB90FAA0F097
:10090000B0FA80F1286842032FD090FAA0F0B0FA34
:1009100080F0814204D100220321206801F0A4FB71
:100920002068816811F0010F22D0A8E000E004E007
:1009300001F071FBC0F384618DE7C0F3846091E73F
:1009400001F069FBC0F38461A2E7C0F38460A6E70D
:1009500001F061FBC0F38461B7E7C0F38460BBE7DB
:1009600001F059FBC0F38461CCE7C0F38460D0E7A9
:10097000EB6829684B4550F8B03FC1F3120101D133
:100980000B4300E08B430360E868484577D1286853
:1009900041031CD090FAA0F1B1FA81F1491C01F099
:1009A0001F0109294FEA403132D8002912D000BF77
:1009B00090FAA0F1B1FA81F101F1010101F01F01FA
:1009C00006FA01F609D100BFC0F3846109E0C0F363
:1009D0008461E3E7C0F38461EEE790FAA0F1B1FA35
:1009E00081F101F1010101F01F0146EA816102D1AB
:1009F000C0F3846003E090FAA0F0B0FA80F000F158
:100A0000010000F01F0000EB400041EA005132E01D
:100A100000290ED090FAA0F1B1FA81F101F10101A3
:100A200001F01F0106FA01F606D100BFC0F3846190
:100A300006E0C0F38461F1E790FAA0F1B1FA81F128
:100A400001F1010101F01F0146EA816102D1C0F309
:100A5000846003E090FAA0F0B0FA80F000F10100A9
:100A600000F01F002C4A00EB400002EB005041EA6E
:100A7000000141F00071AA68206801F0E6FA2748F9
:100A80002A6802423FF46AAE25488168254B01F08E
:100A9000E0719A4202D0244B9A421CD10B021AD424
:100AA0002268B2F1A04F7FF459AE826841F4000190
:100AB00022F0E0720A4382601C481D490068B0FBC6
:100AC000F1F0401C00EB4000800000E0401E009070
:100AD0000028FBD142E6174D174BAA4207D1CD01A2
:100AE00005D422689A42F5D041F0807109E0134D97
:100AF000AA42EFD14A02EDD422689A42EAD041F4E8
:100B00008001826822F0E0720A43826026E60000DB
:100B100000007F4000F0FF03000020FE000008807E
:100B200000030050000021C31000C0901C000020F2
:100B3000400D0300000052C700010050000084CBAC
:100B40000068006C70470000F8B54FF00005040025
:100B50002E46009502D0E06D10B107E00120F8BDEF
:100B6000204600F0EFF8266684F858602068816817
:100B7000C1F3407119B181686A4A114081602068EF
:100B80008168C1F3007189B98168674A114041F0F9
:100B900080518160654866490068B0FBF1F0400013
:100BA000801C00E0401E00900028FBD12068816876
:100BB000C1F3007141B9E16D41F01001E165216EB1
:100BC00041F001012166012501F02FFAE16DC9060E
:100BD00000D430B1E06D40F01000E06501252846FA
:100BE000F8BDE06D20F4807040F00200E065206800
:100BF000806810F0010F11D14FF0A04080684D497E
:100C000000F00100896801F00101084306D14A485B
:100C10006168826822F47C120A438260E168E06BBA
:100C2000627F0843A16841EA4231084394F82410E6
:100C300040EA0140012904D1218D404A02EB4141A3
:100C40000843E16A29B101F47871226B014342EA59
:100C500001002168CA683A4B1A400243CA60206802
:100C60000169626B21F0406111430161206801F06C
:100C7000DCF90646206801F0D4F930432ED1207FFC
:100C800094F83810800340EA41022068C16844F2B9
:100C9000020399431143C16020690028206801695B
:100CA0000AD041F480310161206850F8C01F2269E8
:100CB0006FF30D01114307E021F4803101612068D9
:100CC00050F8C01F6FF30D01016094F84000012837
:100CD0000CD02068016921F00101016160690128DF
:100CE0002068016B21F00F0111D013E0D4E911014C
:100CF0000843D4E913121143084321680A6940F2FA
:100D0000FC739A43104340F001000861E6E7226A51
:100D1000521E11430163E06D20F0020040F001001B
:100D2000E0655CE7C0FFFF5FC0FFFF7F1C000020A5
:100D3000400D030000010050000300500000FEFFC2
:100D40000740F0FF10B598B00446142111A8FFF732
:100D500099FA44216846FFF795FA2068B0F1A04F50
:100D600026D14FF40040009040030F90684600F0F9
:100D70006FFB08B1FFF720FC0E48C16C41F4005135
:100D8000C164C16C01F400511691C16C41F00101C4
:100D9000C164C06C11A900F00100169002201190EE
:100DA00003201290002013904FF0904000F02EF995
:100DB00018B010BD001002402DE9F04104463B4838
:100DC0000F46816801F01F05A16908290FD085B180
:100DD000052D0ED0092D0CD0806800F4604060B164
:100DE000E06D40F02000E0650120BDE8F0810826BC
:100DF00004E02068C068C007F1E7042600F038FA74
:100E0000804615E0781C13D000F032FAA0EB080001
:100E1000B84200D867B920680068304208D1E06D58
:100E200040F00400E065002084F858000320DCE76F
:100E3000206800683042E5D0E06D40F40070E06565
:100E4000206801F0FAF880B1607F70B9206800680E
:100E500000070AD5E06D20F48070E065E06DC00405
:100E600003D4E06D40F00100E065114A20684FF0C6
:100E7000A041904201D10B4600E00346834210D0CE
:100E80007DB1052D0DD0092D0BD0904200D001462B
:100E9000C968082E07D0490401D40C210160002044
:100EA000A3E7C168F5E70821F8E700000003005058
:100EB000000100502DE9F04104463848806800F0F8
:100EC0001F05206801F0B1F818B102210846BDE8FD
:100ED000F08194F8580001280CD0012084F85800C3
:100EE0002046FFF7CBFA01004FF0000304D084F84E
:100EF0005830EBE70220EAE7E06D40F601629043EC
:100F000040F48070E065264A20684FF0A046904289
:100F100001D1374600E00746874200D01DB9E76D92
:100F200027F48017E765E76DFF0404D5276E27F0E7
:100F30000607276600E023661C27076084F8583000
:100F40002068904201D1334600E00346834215D029
:100F5000A5B1052D12D0092D10D0E36D43F48013F7
:100F6000E365904200D13046C0688001AED5E06DA7
:100F700020F4005040F48050E065A7E7C268920179
:100F800005D5E26D22F4005242F48052E265826897
:100F9000044B1A40121D826098E7000000030050C5
:100FA00000010050C0FFFF7F10B5044690F85800C4
:100FB000012808D0012084F8580003212046FFF7BB
:100FC000B3F910B10BE0022010BD2046FFF71EFA66
:100FD00028B9E16D21F4885141F00101E16500215A
:100FE00084F8581010BD000070B5044600F040F9B8
:100FF0000546601C02D004484068044400F038F9FB
:10100000401BA042FAD370BD100000202DE9F04F24
:10101000DFF82092002301260324A9F1040B85B0F8
:101020000F2709F1040AABF1040EFAE006FA03F502
:101030002A407CD091F804C00CF0030CBCF1010FE5
:1010400002D0BCF1020F26D1D0F808C0CDF800C004
:101050004FEA430C04FA0CF8CDF810C0DDF800C0DC
:101060002CEA080CCDF800C0D1F80C80DDF810C0D7
:1010700008FA0CF8DDF800C048EA0C08C0F808804F
:10108000D0F804C02CEA050C0D79C5F300159D407D
:1010900045EA0C0545600D79ED43AD070ED0C568F6
:1010A0004FEA430804FA08FC25EA0C05D1F808C009
:1010B0000CFA08FC4CEA050CC0F80CC00D7905F0E0
:1010C0000305022D16D1DD0800EB850CCDF808C014
:1010D000DCF820805D074FEAD56C07FA0CF528EAAA
:1010E00005080D6905FA0CF5DDF808C045EA0805A4
:1010F000CCF8205005684FEA430CCDF808C004FA3C
:101100000CFC25EA0C0591F804C00CF00308DDF88E
:1011100008C008FA0CF848EA0508C0F800804D68D5
:1011200015F4403F7CD0444DD5F860C000E077E036
:101130004CF0010CC5F860C02D6E23F0030C05F0D7
:10114000010500953D4D65440295AD684FEA837CED
:101150004FEA1C7807FA08FC25EA0C05B0F1904F1D
:1011600006D0DFF8DCC0604505D14FF0010C20E06F
:101170004FF0000C1DE0DFF8CCC0604502D14FF00D
:10118000020C16E0DFF8C0C0604502D14FF0030C3E
:101190000FE0DFF8B8C0604502D14FF0040C08E062
:1011A000DFF8ACC0604502D14FF0050C01E04FF014
:1011B000060C0CFA08FC4CEA050C029DC5F808C0A8
:1011C000D9F80050CC46D1F8048095435FEAC8288E
:1011D00000D51543CCF80050DAF80050D446D1F8C9
:1011E000048095435FEA882800D51543CCF8005069
:1011F000DBF80050DC46D1F8048095435FEA88387C
:1012000000D51543CCF80050DEF80050F446D1F874
:10121000048095435FEAC83800D51543CCF80050E8
:101220005B1C0A6832FA03F57FF400AF05B0BDE835
:10123000F08F00000804014000100240000001404F
:101240000004004800080048000C00480010004856
:1012500000140048426921EA02030A4043EA0241BD
:10126000816170470AB181617047816270470000F7
:101270000148806870470000100000200248816823
:1012800042681144816070471000002010B50024AE
:10129000032000F065F80F2000F008F808B10124E1
:1012A00001E000F025F8204610BD000070B50E4E9C
:1012B00005460024706898B14FF47A71B1FBF0F0E4
:1012C0000A490968B1FBF0F000F054FD40B9102D57
:1012D00006D200222946501E00F022F8356000E0B8
:1012E0000124204670BD0000100000201C000020DA
:1012F0000A4882B0016E41F001010166016E01F001
:1013000001010091816D41F080518165806D00F097
:101310008050009002B000F093B80000001002402E
:10132000F0B40E4B1B680C46C3F30223C3F1070550
:10133000042D00D90425191D072901D2002300E03E
:10134000DB1E012606FA05F1491E214099409E4008
:10135000761E16403143F0BC01F006BA0CED00E0F9
:10136000064900F0070208684FF6FF03184040EAFC
:101370000220034A10430860704700000CED00E0B3
:101380000000FA052B492C4B0A6832214A432B49AD
:1013900040B1B0F5007F086829D020F4C06040F467
:1013A00080602CE00868C0F34120022804D051F886
:1013B000800F20F4807022E0D1F8800020F480704B
:1013C000C1F88000086820F4C06040F40070086034
:1013D000B2FBF3F0401C00E0401E4A69520501D503
:1013E0000028F9D1486940050AD503207047C0F3A9
:1013F0004120022806D051F8800F40F48070086028
:1014000000207047D1F8800040F48070C1F880005F
:10141000086820F4C06040F400700860B2FBF3F08C
:10142000401C00E0401E4A695205DBD50028F9D176
:10143000D8E700001C00002040420F000070004070
:101440000248816841F4804181607047007000402B
:101450002DE9F8430446006800269D4D00035ED543
:10146000A86D0027C00008D4A86D40F08050A86582
:10147000A86D012700F080500090DFF85892D9F84D
:10148000001041F48071C9F80010FFF7F1FE8046AA
:1014900006E000BFFFF7ECFEA0EB080002282BD807
:1014A000D9F80000C005F5D5D5F8900010F44070CB
:1014B00014D0216C814211D0D5F89000D5F890104D
:1014C00020F4407041F48031C5F89010D5F89010A8
:1014D00021F48031C5F89010C5F89000C00711D0F4
:1014E000FFF7C6FE804641F2883907E0FFF7C0FEED
:1014F000A0EB0801494501D903260BE0D5F890007F
:101500008007F3D5D5F89000216C20F44070084393
:10151000C5F890001FB1A86D20F08050A865207814
:10152000C00707D0D5F88800616820F003000843A1
:10153000C5F888002078800707D5D5F88800A1680D
:1015400020F00C000843C5F888002078400707D534
:10155000D5F88800E16820F030000843C5F888001D
:101560002078000707D5D5F88800216920F0C00051
:101570000843C5F888002078800607D5D5F888008C
:10158000616920F440600843C5F88800207840066F
:1015900007D5D5F88800A16920F440500843C5F864
:1015A00088002078000607D5D5F88800E16920F486
:1015B00040400843C5F888002088C00507D5D5F805
:1015C0008800216A20F440300843C5F8880020884C
:1015D000800507D5D5F88800616A20F440200843CB
:1015E000C5F88800208840050FD5D5F88800A16A85
:1015F00020F440100843C5F88800A06AB0F5801FA9
:1016000003D1E86840F48010E860208800050FD519
:10161000D5F88800E16A20F440000843C5F8880046
:10162000E06AB0F5800F03D1E86840F48010E8600C
:101630002088C0040FD5D5F88800216B20F04070B9
:101640000843C5F88800206BB0F1807F03D1E868BB
:1016500040F48010E86020884FF0006180040ED5CF
:10166000D5F88800626B20F040601043C5F8880010
:10167000606B884203D1E86840F48010E8602088FD
:1016800040040ED5D5F88800A26B20F040601043CE
:10169000C5F88800A06B884203D1E86840F4801048
:1016A000E860208800040FD5D5F88800E16B20F0B1
:1016B00040500843C5F88800E06BB0F1805F03D16B
:1016C000E86840F48030E8603046BDE8F883000008
:1016D00000100240007000402DE9F0470E46050062
:1016E0004FF0000725D0DFF8AC81D8F8000000F0FB
:1016F0000F00B0420CD2D8F8001021F00F01314396
:10170000C8F80010D8F8000000F00F00B04210D167
:101710002968614CC80741F2883A5AD06868DFF8F6
:101720007C91032808D0022820682DD0400500288D
:101730002CDB0120BDE8F08720688001F9D5E06846
:1017400000F00302E068C0F30310401C032A19D024
:10175000534A00BFB2FBF0F0E268C2F306225043E6
:10176000E268C2F34162521C5200B0FBF2F04845FD
:1017700017D9A06810F0F00F0CD0880711D5A86811
:1017800040B10EE0474AE5E78003D0E700F0B6F845
:10179000484506D9A06820F0F00040F08000A06025
:1017A0008027A068696820F003000843A060FFF765
:1017B0005FFD814606E000BFFFF75AFDA0EB09017F
:1017C00051453AD8A068696800F00C00B0EB810F71
:1017D000F2D12868810714D5400703D5A06840F4EA
:1017E000E060A0602878000705D5A06820F460506C
:1017F00040F4E060A060A068A96820F0F000084311
:1018000004E0802F03D1A06820F0F000A060D8F899
:101810000010404601F00F01B14216D9016821F0D5
:101820000F0131430160FFF723FD074607E000BFCA
:10183000FFF71EFDC11B514501D903207AE7D8F8F7
:10184000000000F00F00B042F2D12878400705D523
:10185000A068E96820F4E0600843A06028780007E9
:1018600006D5A068296920F4605040EAC100A06054
:1018700000F044F8A1680C4AC1F30311515C01F077
:101880001F01C8400949086009480068BDE8F047E1
:10189000FFF70CBD002002400010024000B4C40459
:1018A0000024F40000127A00802900081C000020A7
:1018B000100000200548064900688968054AC1F300
:1018C0000221515C01F01F01C84070471C0000203C
:1018D0000010024090290008054806490068896800
:1018E000054AC1F3C221515C01F01F01C840704795
:1018F0001C0000200010024090290008184910B573
:101900008868C0F381021748012A0BD08A68431007
:10191000C2F38102022A06D08A68C2F38102032A36
:1019200003D0002010BD184610BDCA6802F00304A1
:10193000CA68C2F30312521C032C02D0B0FBF2F0AF
:1019400001E0B3FBF2F0CA68C968C2F30622504353
:10195000C1F34161491C4900B0FBF1F010BD00002A
:10196000001002400024F4002DE9F84304007AD06E
:101970002078FA4DC00747D0A868E96800F00C004D
:1019800001F003010C2802D0082817D001E0032938
:1019900014D06068B0F5803F17D0B0F5A02F28684C
:1019A00017D020F480302860286820F48020286038
:1019B0006068E0B1FFF75CFC064614E0286880032D
:1019C00022D560680028D2D01EE0286840F480301C
:1019D000EDE740F480202860F7E700BFFFF748FC00
:1019E000801B642870D828688003F7D50CE0FFF7C7
:1019F0003FFC064605E000BFFFF73AFC801B642869
:101A0000F0D828688003F7D4207880074CD5A868E0
:101A1000E96800F00C0001F003010C2802D0042852
:101A20000DD001E002290AD0E068002828682BD0F8
:101A300040F480702860FFF71BFC064619E0286818
:101A4000400502D5E068002891D06868217C20F02C
:101A5000FE4040EA01606860C1480068FFF726FC6C
:101A6000002800D120E076E1FFF702FC801B02286D
:101A7000B8D828684005F7D56868217C20F0FE407A
:101A800040EA016068600FE020F480702860FFF792
:101A9000EFFB064605E000BFFFF7EAFB801B0228CC
:101AA000A0D828684005F7D42078000729D56069B8
:101AB0000028D5F8940013D040F00100C5F8940038
:101AC000FFF7D6FB064606E090E000BFFFF7D0FB2D
:101AD000801B022886D8D5F894008007F6D510E040
:101AE00020F00100C5F89400FFF7C2FB064604E0B1
:101AF000FFF7BEFB801B022878D8D5F8940080073A
:101B0000F6D42078400761D5A86D0026C00008D41F
:101B1000A86D40F08050A865A86D012600F08050A7
:101B2000009090480168C90511D40168804641F4CD
:101B300080710160FFF79CFB074604E0FFF798FB0C
:101B4000C01B022852D8D8F80000C005F6D5A068FE
:101B5000012815D00528D5F8900016D020F00100F6
:101B6000C5F89000D5F8900020F00400C5F890006A
:101B7000A06841F28838B8B1FFF77AFB07460EE05B
:101B8000D5F8900040F00100F0E740F00400C5F8FF
:101B90009000F5E7FFF76CFBC11B414526D8D5F84F
:101BA00090008007F6D50CE0FFF762FB074604E0E3
:101BB000FFF75EFBC11B414518D8D5F890008007A0
:101BC000F6D41EB1A86D20F08050A865207880065C
:101BD00029D5A0690028D5F8980013D040F001005D
:101BE000C5F89800FFF744FB064606E077E000BF23
:101BF000FFF73EFB801B022877D8D5F898008007B6
:101C0000F6D510E020F00100C5F89800FFF730FB92
:101C1000064604E0FFF72CFB801B022865D8D5F8A8
:101C200098008007F6D4E069F0B3A968C1F3810198
:101C3000032961D00228286820F0807028600BD02A
:101C4000E86820F00300E860E86847490840E86079
:101C5000FFF70EFB04464BE0FFF70AFB064604E0E5
:101C6000FFF706FB801B02283FD828688001F7D4C5
:101C7000F4E908016FF00F0202EB01110843218A19
:101C80005204490802EB4151A26841EA022108438B
:101C9000217D4FF07E42490802EB41610843217BE0
:101CA00040EAC160E96800E062E0304A1140084360
:101CB000E860286840F080702860E86840F0807034
:101CC000E860FFF7D5FA044605E000BFFFF7D0FA59
:101CD000001B022809D828688001F7D548E004E0F5
:101CE000FFF7C6FA001B022802D90320BDE8F883DB
:101CF00028688001F4D43BE00128F7D0E868226A24
:101D000000F00301914226D1616A00F0F00209015E
:101D1000103991421FD1A26A00F4FE41B1EB022FAB
:101D200019D194F82C2000F07841B1EBC26F12D198
:101D3000218E00F4C00249084905A1F50011914225
:101D400009D194F8341000F0C06049084906A1F1A7
:101D5000007181420CD00120C8E700000010024051
:101D60001000002000700040FFFFEEFE0C809F017D
:101D70000020BBE710B5401EB0F1807F01D30120E9
:101D800010BD4FF0E02460610F21601700F0ECFC03
:101D90000020A06107202061002010BD90F8801075
:101DA000012918D0012180F880102421C0F8841066
:101DB00050F8641B0A680B6823F001030B6022F0E3
:101DC00000510022026050F8643C19602021016239
:101DD0000277104670470220704770B5044690F8AD
:101DE000800001281DD0012084F880002420C4F840
:101DF000840020680568026822F001020260206801
:101E0000826822F060620A438260204600F048FA4D
:101E1000206805602020C4F88400002084F8800039
:101E200070BD022070BD70B5044690F88000012896
:101E30001DD0012084F880002420C4F8840020688C
:101E40000568026822F0010202602068826822F0C0
:101E500060420A438260204600F022FA2068056052
:101E60002020C4F88400002084F8800070BD022087
:101E700070BD10B5040003D0D4F8840010B107E0A1
:101E8000012010BD002084F88000204600F026F8D4
:101E90002420C4F884002068016821F00101016059
:101EA000204600F0B3FA0128EBD0A06A10B120461A
:101EB00000F018FA2068416821F4904141602068E0
:101EC000816821F02A0181602068016841F00101E8
:101ED00001602046BDE8104000F068BA10B598B027
:101EE0000446142111A8FEF7CDF944216846FEF7F7
:101EF000C9F917492068884228D101200024CDE97A
:101F000000046846FFF7A4FA08B1FEF755FB114834
:101F1000016E41F480410166016E01F48041169129
:101F2000C16C41F00101C164C06C11A900F0010055
:101F300016904FF4C06011900220CDE912040720E2
:101F4000CDE914404FF09040FFF760F818B010BD95
:101F500000380140001002402DE9F8430446D0F853
:101F600084001F4616460D46202851D1DDB1D6B15A
:101F700094F8800001284BD0012084F880004FF0B5
:101F80000008C4F88C802120C4F884001834FFF7BE
:101F90006FF9A6878146E68754F8100C183CB0F517
:101FA000805F03D004E00120BDE8F883206920B100
:101FB0002E46002584F8808010E00026FAE7802174
:101FC000204600F05DFBB8B9C6B116F8010B2168D8
:101FD0008862B4F85600401EA4F85600B4F85600C3
:101FE0004B464FF0000200970028E8D14FF0400127
:101FF000204600F045FB30B10320D5E735F8020B51
:10200000C0F30800E3E72020C4F884000020CBE7F9
:102010000220C9E7FEE700EB8100006E00F0F84007
:1020200070478068C0F3C00070478068C0F38000CC
:1020300070478068C0F380007047C06810F4406F3C
:1020400001D00020704701207047042303EAD153D8
:1020500010B518444369C1F3045107248C40A343CD
:102060008A401343436110BD00EB8100016E21F0F3
:10207000004111430166704730B58BB000240894CD
:102080000994202168460A94FEF7FCF829484FF08D
:10209000A041042501608912C0E901148561012174
:1020A000C460C0E90441047744770321016280F8E9
:1020B0002440C462046380F83840C46380F8404020
:1020C000FEF742FD08B1FEF777FA08A9194808940F
:1020D000FEF7BEFA08B1FEF76FFA17480090062027
:1020E000019002907F200594CDE9030569461148CF
:1020F000FEF71AFB08B1FEF75FFA104800900C20BB
:10210000019069460B48FEF70FFB08B1FEF754FA41
:102110000B4800901220019069460648FEF704FB28
:1021200008B1FEF749FA7F210248FEF747FA0BB0E3
:1021300030BD00003000002004006008000084CBA7
:10214000000021C310B586B014216846FEF79AF846
:102150001648C16C41F02001C164C16C01F020013E
:102160000591C16C41F00101C164C16C01F0010134
:102170000591C16C41F00401C164C06C0C4C00F0CD
:1021800004000590012210212046FFF76BF8102073
:1021900000900120019000200290032003906946E6
:1021A0002046FEF733FF06B010BD000000100240CD
:1021B00000080048184810B5164901604FF4E13195
:1021C0004160002181600C22C160C0E9041281617C
:1021D000C161016241628162FFF74BFE08B1FEF707
:1021E000EBF900210C48FFF71EFE08B1FEF7E4F9F9
:1021F00000210948FFF7F1FD08B1FEF7DDF90648B7
:10220000FFF7CCFD002803D0BDE81040FEF7D4B99D
:1022100010BD0000003801409C000020FEE7FEE7F2
:1022200070477047FFF72AB810B594B03821684658
:10223000FEF728F814210EA8FEF724F84FF40070DA
:10224000FFF7A0F801200090000401900220032471
:10225000CDE907044B21CDE909010A21CDE90B1095
:102260000D906846FFF780FB08B172B6FEE70F20BD
:10227000CDE90E04002010901190129004210EA8B8
:10228000FFF72AFA002801D072B6FEE714B010BD9D
:102290000248016841F470010160704788ED00E078
:1022A00030B5416EB9B1026891689268C1F342617C
:1022B0000B4B520F9C5CE50003F10804A25CB5FBDC
:1022C000F2F2A0F86A205A5C615CD200B2FBF1F134
:1022D000A0F8681030BD0121A0F86A10F8E70000EE
:1022E0007029000890F82810C90706D001684A68CC
:1022F000C36A22F400321A434A6090F82810890712
:1023000006D501684A68036B22F480321A434A609A
:1023100090F82810490706D501684A68436B22F4F3
:1023200080221A434A6090F82810090706D50168F0
:102330004A68836B22F400421A434A6090F82810DE
:10234000C90606D501688A68C36B22F480521A4315
:102350008A6090F82810890606D501688A68036C9F
:1023600022F400521A438A6090F82810490611D5C9
:1023700001684A68436C22F480121A434A60416C37
:10238000B1F5801F06D101684A68836C22F4C0024F
:102390001A434A6090F82810090606D501684A6871
:1023A000C06C22F4002202434A607047F8B5002650
:1023B0000446C0F88C60FEF75BFF054620680068A5
:1023C0006FF07E47000708D52B4600224FF400111E
:1023D0002046009700F054F960B920680068400773
:1023E0000AD52B4600224FF480012046009700F0CA
:1023F00047F908B10320F8BD2020C4F88400C4F8D0
:10240000880044F86C6F00202675F8BD2DE9F04176
:102410000446016880682269E36910436269002507
:102420001A431043DFF82CC20A688B4B1A40024350
:102430000A6020684168E26821F44051114341601C
:102440002168A069614501D0226A10438A68834BE4
:102450001A4002438A602068C16A626A21F00F0153
:102460001143C1627E4923687E488B420DD1D0F86A
:10247000880010F0030006D0012855D0022842D071
:1024800003283FD152E001203DE077498B420BD138
:10249000D0F8880010F00C0035D0042833D008287C
:1024A00040D00C282ED141E070498B420BD1D0F89E
:1024B000880010F0300026D0102835D0202831D0E8
:1024C00030281FD132E06A498B420BD1D0F8880006
:1024D00010F0C00017D0402826D0802822D0C02875
:1024E00010D123E063450DD1D0F8880010F440608E
:1024F00009D0B0F5806F17D0B0F5006F12D0B0F5ED
:10250000406F13D010205B495B4F00264FF4004210
:1025100063453BD160B1022813D004280BD00828B2
:1025200072D10DE00220EEE70420ECE70820EAE794
:10253000FFF7C0F901E0FFF7E1F9010001D17CE00C
:102540001146606A37F810206768B1FBF2F007EBBC
:102550004703834270D8B0EB073F6DD8002308468D
:102560001946FDF757FE090241EA10610202780898
:10257000101871413A460023FDF74CFE3F4AA0F582
:102580004071914258D82168C86056E0E3694FF61F
:10259000EF7893422CD109284ED2DFE800F00508ED
:1025A000114D0D4D4D4D1000FFF784F901E0FFF77F
:1025B00093F9010004D140E0FFF7A0F9F9E71146D3
:1025C000606A37F81000B1FBF0F04100606801EB81
:1025D0005001B1FBF0F0A0F1100141452CD84FF6AD
:1025E000F0710140C0F3420001432068C16024E063
:1025F000092821D2DFE800F0050912200E20202052
:102600001100FFF757F902E016E0FFF765F9010046
:1026100004D112E0FFF772F9F9E71146606A37F862
:102620001000B1FBF0F1606801EB5001B1FBF0F07C
:10263000A0F1100141450AD901250120A4F86A0042
:1026400024F8680F2846A660E660BDE8F08180B2F5
:1026500099E7000000800040F369FFCFFFF4FF110D
:102660000038014000100240004400400048004093
:10267000004C00400024F40058290008FFFC0F0023
:102680002DE9F0479A4617460E4604464FF00009DA
:102690004FF02008089D4AE0681C48D0FEF7E8FD8E
:1026A000A0EB0A00A8422AD84DB320680168490768
:1026B0003DD5C069C043000539D421684FF400609E
:1026C0000862206850E8001F21F4D07140E8001231
:1026D000002AF6D12068083050E8001F21F00101DF
:1026E00040E80012002AF5D144F8848FC4F8048031
:1026F000C4F8088004F8049C0320BDE8F087216832
:1027000051E8000F20F4D07041E80002002AF6D111
:102710002068083050E8001F21F0010140E8001255
:10272000002AF5D144F8848FC4F80480E2E72068D9
:10273000C06936EA000004D00020B842ACD00020C6
:10274000DBE70120F9E7FEE70FB4054B10B503A95D
:10275000044A029800F028F810BC5DF814FB000051
:10276000FD280008200000200907090E002804DBCE
:1027700000F1E02080F80014704700F00F0000F135
:10278000E02080F8141D704702E008C8121F08C13D
:10279000002AFAD170477047002001E001C1121FE2
:1027A000002AFBD1704700002DE9FF4F89B09B46FE
:1027B0000446002506E025280BD05A460B99904781
:1027C000641C6D1C20780028F5D10DB02846BDE8AA
:1027D000F08F0027B8460122474900E0074314F86C
:1027E000013F203B02FA03F00842F7D120782E285F
:1027F00019D114F8010F47F004072A280ED06FF002
:102800002F022078A0F1300109290CD808EB8801AB
:1028100002EB410100EB0108641CF2E70A98641C1A
:1028200050F8048B0A9020780028CED0642808D075
:10283000692806D075281ED05A460B9990476D1C02
:1028400058E00A994FF00A0901C90A91002802DAF2
:1028500040422D2102E0390504D52B218DF82010AE
:10286000012103E0F90704D02021F7E78A4608AEEA
:102870000DE00021FAE70A994FF00A0901C90A910F
:10288000F7E74946FDF709FD303106F8011D00283C
:10289000F7D1ADEB060000F12009780701D44FF025
:1028A0000108C84502DDA8EB090000E000208046D1
:1028B000002706E008A85A46C05D0B9990476D1C9A
:1028C0007F1C5745F6DB04E030205A460B999047B1
:1028D0006D1CB8F10001A8F10108F5DC05E016F85F
:1028E000010B5A460B9990476D1CB9F10001A9F1F3
:1028F0000109F4DC641C65E70928010013B54FF4F5
:102900007A73012269460248FFF726FB00981CBD36
:102910009C000020FEF7BAFCFFF786FCFFF712FCD4
:10292000FFF7AAFBFFF746FC07A0FFF70DFF094CD6
:102930004FF4FA7510212046FEF78CFC2846FEF76E
:1029400053FBFDF7D5FDF5E74144435F5445535430
:10295000200D0A00000800480100020004000600E3
:1029600008000A000C001000200040008000000158
:10297000010101030701000008040204080101012C
:10298000000000000000000001020304060708091F
:102990000000000001020304B82900080000002024
:1029A0002400000088270008DC29000824000020FB
:1029B0000C0500009827000800000000000000003F
:1029C00000000000000000001000000001000000F6
:0C29D000000000000024F40000000000E3
:04000005080001D915
:00000001FF
