:020000040800F2
:1000000070050020F10100087B1C0008AD1A0008F3
:10001000791C00084D030008F723000800000000C9
:10002000000000000000000000000000D51E0008D5
:100030004F030008000000007D1C0008D71E0008C8
:100040000B0200080B0200080B0200080B0200085C
:100050000B0200080B0200080B0200080B0200084C
:100060000B0200080B0200080B0200080B0200083C
:100070000B0200080B0200080B0200080B0200082C
:100080000B020008000000000B0200080B02000831
:100090000B0200080B0200080B0200080B0200080C
:1000A0000B0200080B0200080B0200080B020008FC
:1000B0000B0200080B0200080B0200080B020008EC
:1000C0000B0200080B0200080B0200080B020008DC
:1000D0000B0200080B0200080B0200080B020008CC
:1000E0000B0200080B0200080B0200080B020008BC
:1000F0000B0200080B0200080B02000800000000C1
:10010000000000000B020008000000000B020008C5
:100110000B020008000000000B0200080B020008A0
:100120000B0200080B0200080B0200080B0200087B
:100130000B02000800000000000000000B02000895
:100140000B0200080B020008000000000000000085
:10015000000000000000000000000000000000009F
:100160000000000000000000000000000B0200087A
:100170000B0200080000000000000000000000006A
:10018000000000000B02000800000000000000005A
:10019000000000000000000000000000000000005F
:1001A00000000000000000000B0200080B02000825
:1001B0000B0200080B0200080B0200080000000000
:1001C000000000000B02000800000000000000001A
:1001D0000B0200080B020008DFF810D000F07CF8DA
:1001E00000480047E9270008AFF3008070050020B1
:1001F0000648804706480047FEE7FEE7FEE7FEE7C1
:10020000FEE7FEE7FEE7FEE7FEE7FEE7411F000828
:10021000D90100082DE9F05F0546002092469B4673
:1002200088460646814640241BE02846414647460C
:10023000224600F041F853465A46C01A914110D365
:1002400011461846224600F028F82D1A67EB0108DF
:100250004F4622460120002100F01FF817EB00094D
:100260004E41201EA4F10104DFDC484631462A46F7
:100270004346BDE8F09FD2B201E000F8012B491ED1
:10028000FBD270470022F6E710B513460A46044633
:100290001946FFF7F0FF204610BD202A04DB203A64
:1002A00000FA02F1002070479140C2F1200320FAC9
:1002B00003F3194390407047202A04DB203A21FAC7
:1002C00002F00021704721FA02F3D040C2F120026F
:1002D0009140084319467047064C074D06E0E06818
:1002E00040F0010394E8070098471034AC42F6D37D
:1002F000FFF776FFF8280008182900087CB50446A7
:100300000FA0104E00684FF480650090002229462F
:10031000304600F05DF96423022269460A4801F084
:100320007FF86423012201A9074800F0B5FF9DF87A
:100330000400207001222946304600F049F97CBDB6
:10034000800000000008004878000020FEE77047A9
:1003500072B6FEE770B5044600F040F90546601C31
:1003600002D004484068044400F038F9401BA04221
:10037000FAD370BD000000202DE9F04FDFF8209285
:10038000002301260324A9F1040B85B00F2709F1EE
:10039000040AABF1040EFAE006FA03F52A407CD019
:1003A00091F804C00CF0030CBCF1010F02D0BCF1B9
:1003B000020F26D1D0F808C0CDF800C04FEA430C98
:1003C00004FA0CF8CDF810C0DDF800C02CEA080CD7
:1003D000CDF800C0D1F80C80DDF810C008FA0CF898
:1003E000DDF800C048EA0C08C0F80880D0F804C066
:1003F0002CEA050C0D79C5F300159D4045EA0C0566
:1004000045600D79ED43AD070ED0C5684FEA43084E
:1004100004FA08FC25EA0C05D1F808C00CFA08FC1F
:100420004CEA050CC0F80CC00D7905F00305022D4F
:1004300016D1DD0800EB850CCDF808C0DCF8208073
:100440005D074FEAD56C07FA0CF528EA05080D6937
:1004500005FA0CF5DDF808C045EA0805CCF820508F
:1004600005684FEA430CCDF808C004FA0CFC25EAF5
:100470000C0591F804C00CF00308DDF808C008FA78
:100480000CF848EA0508C0F800804D6815F4403FB4
:100490007CD0444DD5F860C000E077E04CF0010C12
:1004A000C5F860C02D6E23F0030C05F00105009522
:1004B0003D4D65440295AD684FEA837C4FEA1C7858
:1004C00007FA08FC25EA0C05B0F1904F06D0DFF8DA
:1004D000DCC0604505D14FF0010C20E04FF0000C6E
:1004E0001DE0DFF8CCC0604502D14FF0020C16E0F1
:1004F000DFF8C0C0604502D14FF0030C0FE0DFF819
:10050000B8C0604502D14FF0040C08E0DFF8ACC081
:10051000604502D14FF0050C01E04FF0060C0CFADB
:1005200008FC4CEA050C029DC5F808C0D9F800503B
:10053000CC46D1F8048095435FEAC82800D515431E
:10054000CCF80050DAF80050D446D1F80480954336
:100550005FEA882800D51543CCF80050DBF800503E
:10056000DC46D1F8048095435FEA883800D515430E
:10057000CCF80050DEF80050F446D1F804809543E2
:100580005FEAC83800D51543CCF800505B1C0A68F8
:1005900032FA03F57FF400AF05B0BDE8F08F00003C
:1005A000080401400010024000000140000400481F
:1005B00000080048000C00480010004800140048E3
:1005C000426921EA02030A4043EA0241816170471D
:1005D0000AB18161704781627047000001488068FC
:1005E0007047000000000020024881684268114402
:1005F000816070470000002010B50024032000F047
:1006000065F80F2000F008F808B1012401E000F0BF
:1006100025F8204610BD000070B50E4E054600249A
:10062000706898B14FF47A71B1FBF0F00A4909682B
:10063000B1FBF0F001F0E9F840B9102D06D200222C
:100640002946501E00F022F8356000E001242046C3
:1006500070BD0000000000200C0000200A4882B09D
:10066000016E41F001010166016E01F0010100918E
:10067000816D41F080518165806D00F08050009067
:1006800002B000F093B8000000100240F0B40E4B2E
:100690001B680C46C3F30223C3F10705042D00D9E0
:1006A0000425191D072901D2002300E0DB1E0126C5
:1006B00006FA05F1491E214099409E40761E1640DB
:1006C0003143F0BC01F004BF0CED00E0064900F03E
:1006D000070208684FF6FF03184040EA0220034A69
:1006E00010430860704700000CED00E00000FA05C0
:1006F0002B492C4B0A6832214A432B4940B1B0F5B3
:10070000007F086829D020F4C06040F480602CE0AD
:100710000868C0F34120022804D051F8800F20F46B
:10072000807022E0D1F8800020F48070C1F8800051
:10073000086820F4C06040F400700860B2FBF3F079
:10074000401C00E0401E4A69520501D50028F9D13D
:10075000486940050AD503207047C0F341200228AC
:1007600006D051F8800F40F4807008600020704778
:10077000D1F8800040F48070C1F88000086820F44F
:10078000C06040F400700860B2FBF3F0401C00E071
:10079000401E4A695205DBD50028F9D1D8E7000090
:1007A0000C00002040420F000070004002488168A9
:1007B00041F4804181607047007000402DE9F843AA
:1007C0000446006800269D4D00035ED5A86D0027F5
:1007D000C00008D4A86D40F08050A865A86D01271E
:1007E00000F080500090DFF85892D9F8001041F4E2
:1007F0008071C9F80010FFF7F1FE804606E000BFE7
:10080000FFF7ECFEA0EB080002282BD8D9F8000077
:10081000C005F5D5D5F8900010F4407014D0216CC7
:10082000814211D0D5F89000D5F8901020F4407096
:1008300041F48031C5F89010D5F8901021F4803142
:10084000C5F89010C5F89000C00711D0FFF7C6FE9C
:10085000804641F2883907E0FFF7C0FEA0EB0801AF
:10086000494501D903260BE0D5F890008007F3D560
:10087000D5F89000216C20F440700843C5F8900032
:100880001FB1A86D20F08050A8652078C00707D060
:10089000D5F88800616820F003000843C5F8880097
:1008A0002078800707D5D5F88800A16820F00C00D3
:1008B0000843C5F888002078400707D5D5F8880098
:1008C000E16820F030000843C5F888002078000770
:1008D00007D5D5F88800216920F0C0000843C5F885
:1008E00088002078800607D5D5F88800616920F453
:1008F00040600843C5F888002078400607D5D5F841
:100900008800A16920F440500843C5F88800207889
:10091000000607D5D5F88800E16920F44040084377
:10092000C5F888002088C00507D5D5F88800216A59
:1009300020F440300843C5F888002088800507D59A
:10094000D5F88800616A20F440200843C5F8880083
:10095000208840050FD5D5F88800A16A20F4401002
:100960000843C5F88800A06AB0F5801F03D1E86885
:1009700040F48010E860208800050FD5D5F8880085
:10098000E16A20F440000843C5F88800E06AB0F549
:10099000800F03D1E86840F48010E8602088C0042C
:1009A0000FD5D5F88800216B20F040700843C5F8BA
:1009B0008800206BB0F1807F03D1E86840F480109C
:1009C000E86020884FF0006180040ED5D5F88800DB
:1009D000626B20F040601043C5F88800606B88426D
:1009E00003D1E86840F48010E860208840040ED508
:1009F000D5F88800A26B20F040601043C5F888004D
:100A0000A06B884203D1E86840F48010E860208839
:100A100000040FD5D5F88800E16B20F04050084362
:100A2000C5F88800E06BB0F1805F03D1E86840F45E
:100A30008030E8603046BDE8F883000000100240D6
:100A4000007000402DE9F0470E4605004FF000070A
:100A500025D0DFF8AC81D8F8000000F00F00B042DC
:100A60000CD2D8F8001021F00F013143C8F8001063
:100A7000D8F8000000F00F00B04210D12968614C96
:100A8000C80741F2883A5AD06868DFF87C91032899
:100A900008D0022820682DD0400500282CDB01203A
:100AA000BDE8F08720688001F9D5E06800F0030216
:100AB000E068C0F30310401C032A19D0534A00BF5A
:100AC000B2FBF0F0E268C2F306225043E268C2F3E0
:100AD0004162521C5200B0FBF2F0484517D9A068A1
:100AE00010F0F00F0CD0880711D5A86840B10EE0C7
:100AF000474AE5E78003D0E700F0B6F8484506D955
:100B0000A06820F0F00040F08000A0608027A0687E
:100B1000696820F003000843A060FFF75FFD81468D
:100B200006E000BFFFF75AFDA0EB090151453AD896
:100B3000A068696800F00C00B0EB810FF2D1286862
:100B4000810714D5400703D5A06840F4E060A06099
:100B50002878000705D5A06820F4605040F4E060D4
:100B6000A060A068A96820F0F000084304E0802F8E
:100B700003D1A06820F0F000A060D8F80010404633
:100B800001F00F01B14216D9016821F00F01314384
:100B90000160FFF723FD074607E000BFFFF71EFDDA
:100BA000C11B514501D903207AE7D8F8000000F0B5
:100BB0000F00B042F2D12878400705D5A068E96857
:100BC00020F4E0600843A0602878000706D5A068FC
:100BD000296920F4605040EAC100A06000F044F8A8
:100BE000A1680C4AC1F30311515C01F01F01C84018
:100BF0000949086009480068BDE8F047FFF70CBDE7
:100C0000002002400010024000B4C4040024F4009C
:100C100000127A00E02800080C00002000000020EC
:100C20000548064900688968054AC1F30221515CFC
:100C300001F01F01C84070470C0000200010024066
:100C4000F02800080548064900688968054AC1F38C
:100C5000C221515C01F01F01C84070470C00002008
:100C600000100240F0280008184910B58868C0F349
:100C700081021748012A0BD08A684310C2F381020F
:100C8000022A06D08A68C2F38102032A03D0002018
:100C900010BD184610BDCA6802F00304CA68C2F34A
:100CA0000312521C032C02D0B0FBF2F001E0B3FBA4
:100CB000F2F0CA68C968C2F306225043C1F3416129
:100CC000491C4900B0FBF1F010BD000000100240CB
:100CD0000024F4002DE9F84304007AD02078FA4D7E
:100CE000C00747D0A868E96800F00C0001F00301D4
:100CF0000C2802D0082817D001E0032914D060681E
:100D0000B0F5803F17D0B0F5A02F286817D020F499
:100D100080302860286820F4802028606068E0B176
:100D2000FFF75CFC064614E02868800322D5606863
:100D30000028D2D01EE0286840F48030EDE740F46F
:100D400080202860F7E700BFFFF748FC801B64287D
:100D500070D828688003F7D50CE0FFF73FFC064603
:100D600005E000BFFFF73AFC801B6428F0D8286834
:100D70008003F7D4207880074CD5A868E96800F094
:100D80000C0001F003010C2802D004280DD001E072
:100D900002290AD0E068002828682BD040F480702F
:100DA0002860FFF71BFC064619E02868400502D5BD
:100DB000E068002891D06868217C20F0FE4040EA7D
:100DC00001606860C1480068FFF726FC002800D178
:100DD00020E076E1FFF702FC801B0228B8D82868E3
:100DE0004005F7D56868217C20F0FE4040EA0160AC
:100DF00068600FE020F480702860FFF7EFFB064684
:100E000005E000BFFFF7EAFB801B0228A0D8286896
:100E10004005F7D42078000729D560690028D5F867
:100E2000940013D040F00100C5F89400FFF7D6FB02
:100E3000064606E090E000BFFFF7D0FB801B0228CB
:100E400086D8D5F894008007F6D510E020F0010090
:100E5000C5F89400FFF7C2FB064604E0FFF7BEFBAF
:100E6000801B022878D8D5F894008007F6D4207823
:100E7000400761D5A86D0026C00008D4A86D40F0D9
:100E80008050A865A86D012600F080500090904821
:100E90000168C90511D40168804641F48071016080
:100EA000FFF79CFB074604E0FFF798FBC01B0228F6
:100EB00052D8D8F80000C005F6D5A068012815D092
:100EC0000528D5F8900016D020F00100C5F8900054
:100ED000D5F8900020F00400C5F89000A06841F219
:100EE0008838B8B1FFF77AFB07460EE0D5F89000D6
:100EF00040F00100F0E740F00400C5F89000F5E78D
:100F0000FFF76CFBC11B414526D8D5F89000800740
:100F1000F6D50CE0FFF762FB074604E0FFF75EFB47
:100F2000C11B414518D8D5F890008007F6D41EB1F2
:100F3000A86D20F08050A8652078800629D5A0698A
:100F40000028D5F8980013D040F00100C5F89800AB
:100F5000FFF744FB064606E077E000BFFFF73EFBE5
:100F6000801B022877D8D5F898008007F6D510E0C6
:100F700020F00100C5F89800FFF730FB064604E0BA
:100F8000FFF72CFB801B022865D8D5F89800800756
:100F9000F6D4E069F0B3A968C1F38101032961D0F7
:100FA0000228286820F0807028600BD0E86820F0C4
:100FB0000300E860E86847490840E860FFF70EFB77
:100FC00004464BE0FFF70AFB064604E0FFF706FB8A
:100FD000801B02283FD828688001F7D4F4E9080173
:100FE0006FF00F0202EB01110843218A52044908F5
:100FF00002EB4151A26841EA02210843217D4FF0F2
:101000007E42490802EB41610843217B40EAC1600E
:10101000E96800E062E0304A11400843E86028686F
:1010200040F080702860E86840F08070E860FFF76A
:10103000D5FA044605E000BFFFF7D0FA001B0228EE
:1010400009D828688001F7D548E004E0FFF7C6FA20
:10105000001B022802D90320BDE8F883286880011C
:10106000F4D43BE00128F7D0E868226A00F00301DD
:10107000914226D1616A00F0F002090110399142D3
:101080001FD1A26A00F4FE41B1EB022F19D194F8EE
:101090002C2000F07841B1EBC26F12D1218E00F408
:1010A000C00249084905A1F50011914209D194F8FF
:1010B000341000F0C06049084906A1F10071814276
:1010C0000CD00120C8E70000001002400000002002
:1010D00000700040FFFFEEFE0C809F010020BBE788
:1010E00070B5040009D0606A002540B125616561D2
:1010F000A56294F85D0040B10CE0012070BD60680D
:10110000B0F5827FF4D0E561F2E784F85C502046C8
:1011100000F05CF8022084F85D002068016821F08E
:1011200040010160E1684FF4E062914201D9002082
:1011300001E04FF48050B1F5706F02D0914200D0C1
:10114000A562A188228901F4827102F4044211434C
:10115000227C02F002021143227D02F001021143BF
:10116000228B02F400721143227F02F038021143F5
:1011700094F8202002F080021143228D02F40052E4
:10118000114322681160A169042202EA114194F816
:10119000242000F4805002F01002114394F834200F
:1011A00002F008021143A28902F470621143014364
:1011B000206841602068C16921F40061C161256631
:1011C000012084F85D00002070BD0000F0B587B0FC
:1011D000044614216846FFF755F82A4A206800247F
:1011E00029490225294E904219D1886D40F480404A
:1011F0008865886D00F480400590C86C40F002005E
:10120000C864C86C694600F0020005909000009028
:10121000CDE901540520CDE9034030462DE01C4ABC
:1012200090422CD1886D40F400408865886D00F4B0
:1012300000400590C86C40F00400C864C86C00F021
:1012400004000590C86C40F00200C864C86C062712
:1012500000F002000590D0140090CDE90154CDE9D2
:10126000034769460B48FFF787F828200090CDE92F
:101270000154CDE9034769463046FFF77DF807B0D2
:10128000F0BD00000038004000100240000400489B
:10129000003C0040000800482DE9F84F0446406833
:1012A0000025984616460F464FF0040BB0F5827F96
:1012B00001D1A06888B194F85C00012818D0012001
:1012C00084F85C00FFF78AF9814694F85D004FF0DE
:1012D000000A01280ED0022599E084F85DB013467B
:1012E0000A462046CDF8008000F05EF9BDE8F88F90
:1012F0000220FBE7002F77D0002E75D084F85DB078
:10130000C4F860A02764A4F84460A4F84660C4F858
:1013100038A0A4F83CA0A4F83EA0C4F84CA0C4F89F
:1013200050A0E0684FF4E06188422068426802D92A
:1013300022F4805201E042F480524260A068B0F58D
:10134000004F09D12068026822F040020260206844
:10135000026822F48042026020680268520603D4C8
:10136000026842F040020260E06888421DD93FE016
:1013700020688168C9070BD0017B206C0170206C4C
:10138000401C2064B4F84600401EA4F846000CE05F
:10139000FFF724F9A0EB0901414503D3B8F1FF3F62
:1013A00003D03BE0B8F1000F38D0B4F84600002875
:1013B000DED121E020688168C9070BD0C068216CAC
:1013C0000880206C801C2064B4F84600401EA4F8FD
:1013D00046000DE0FFF702F9A0EB0901414504D3F7
:1013E000B8F1FF3F04D019E010E0B8F1000F15D0BC
:1013F000B4F846000028DDD14A464146204600F0B8
:101400003EFC08B120202066206E00B1012501209D
:1014100084F85D0084F85CA0284667E70325F6E7BA
:101420002DE9F84F044690F85C0000271D4616464B
:10143000894601280DD04FF0010B84F85CB0FFF70E
:10144000CDF8804694F85D00BA46012804D0022702
:10145000A4E00220BDE8F88FB9F1000F74D0002E8F
:1014600072D0032084F85D00C4F860A0C4F83890FE
:10147000A687E687C4F840A0A4F844A0A4F846A034
:10148000C4F850A0C4F84CA0A068B0F5004F09D132
:101490002068016821F0400101602068016841F482
:1014A0008041016020680168490603D4016841F069
:1014B00040010160E068B0F5E06F606823D908B1D1
:1014C000012E1CD1A06B21680088C86006E020684E
:1014D0008168890709D5A16B0988C160A06B801C50
:1014E000A063E08F401EE08709E0FFF777F8A0EBEC
:1014F0000800A84202D3681C01D046E0ADB3E08FDB
:101500000028E4D136E008B1012E30D1E08F012867
:10151000A06B03D921680088C8600FE021680078BB
:10152000087314E0E08722E020688168890714D5F9
:10153000E18F0129A16B08D90988C160A06B801CCB
:10154000A063E08F801EEDE727E009780173A06BB0
:10155000401CA063E08F401EE4E7FFF73FF8A0EBDC
:101560000800A84202D3681C01D00EE06DB1E08FE4
:101570000028D9D142462946204600F0BAFB08B1DE
:1015800020202066A06810B105E0032706E020684F
:10159000C16880680090206E00B1012784F85DB0BA
:1015A00084F85CA0384655E72DE9F05F044690F8D2
:1015B0005C0000270A9E1D4692468B464FF00109AB
:1015C00001280ED0012084F85C00FFF707F8804660
:1015D00094F85D00616801280CD0B1F5827F07D1D5
:1015E00002E00220BDE8F09FA16809B9042801D0FB
:1015F000022700E1BBF1000F24D0BAF1000F21D087
:1016000005B394F85D00042802D0052084F85D003D
:1016100000202066C4F840A0A4F84650A4F8445026
:10162000C4F838B0E587A587E0642065E0684FF42A
:10163000E061884201D8012D06D92068426822F471
:10164000805205E00127D6E02068426842F48052CB
:10165000426020680268520603D4026842F04002E9
:101660000260E0688842606845D908B1012D3AD12E
:10167000A06B21680088C860A06B801CA063E08F0D
:10168000401EE0872FE02068816889070FD5E18F31
:1016900069B1B9F1010F0AD1A16B0988C160A06BD2
:1016A000801CA063E08F401EE0874FF00009206897
:1016B0008168C9070FD0B4F8461061B1C068216CC9
:1016C0000880206C801C2064B4F84600401EA4F8FA
:1016D00046004FF00109FEF781FFA0EB0800B04281
:1016E00001D3701C75D1E08F0028CCD1B4F846002E
:1016F0000028C8D176E008B1012D6CD1E08F012817
:10170000A06B08D921680088C860A06B801CA0630A
:10171000E08F801E07E0216800780873A06B401CF2
:10172000A063E08F401EE08755E02068816889074C
:101730001AD5E18FC1B1B9F1010F15D1E18F01299E
:10174000A16B07D90988C160A06B801CA063E08FE2
:10175000801E06E009780173A06B401CA063E08F37
:10176000401EE0874FF0000920688168C90728D033
:10177000B4F8461029B3B4F84610012914D9C0684A
:10178000216C0880206C801C2064B4F84600801E08
:10179000A4F84600B4F84600012810D82068416833
:1017A00041F4805141600AE0007B216C0870206C9C
:1017B000401C2064B4F84600401EA4F846004FF0D8
:1017C0000109FEF70BFFA0EB0800B04202D3701C2A
:1017D00001D018E0BEB1E08F0028A6D1B4F84600D1
:1017E0000028A2D142463146204600F082FA10B1CC
:1017F000012720202066012084F85D00002084F865
:101800005C003846EEE60327F5E710B5401EB0F160
:10181000807F01D3012010BD4FF0E02460610F21D3
:10182000601700F055FE0020A06107202061002015
:1018300010BD90F88010012918D0012180F8801087
:101840002421C0F8841050F8641B0A680B6823F048
:1018500001030B6022F000510022026050F8643C4A
:1018600019602021016202771046704702207047FC
:1018700070B5044690F8800001281DD0012084F83E
:1018800080002420C4F8840020680568026822F0E3
:10189000010202602068826822F060620A4382606E
:1018A000204600F055FB206805602020C4F8840025
:1018B000002084F8800070BD022070BD70B5044621
:1018C00090F8800001281DD0012084F88000242099
:1018D000C4F8840020680568026822F001020260F2
:1018E0002068826822F060420A438260204600F04D
:1018F0002FFB206805602020C4F88400002084F8B5
:10190000800070BD022070BD10B5040003D0D4F873
:10191000840010B107E0012010BD002084F8800091
:10192000204600F027F82420C4F8840020680168CD
:1019300021F001010160204600F0C0FB0128EBD03E
:10194000A06A10B1204600F025FB2068416821F410
:10195000904141602068816821F02A0181602068FF
:10196000016841F0010101602046BDE8104000F02F
:1019700075BB000010B598B00446142111A8FEF7FD
:1019800081FC44216846FEF77DFC174920688842A7
:1019900028D101200024CDE900046846FEF70EFF9F
:1019A00008B1FEF7D5FC1148016E41F48041016693
:1019B000016E01F480411691C16C41F00101C164D6
:1019C000C06C11A900F0010016904FF4C060119096
:1019D0000220CDE912040720CDE914404FF09040D9
:1019E000FEF7CAFC18B010BD0038014000100240DC
:1019F0002DE9F8430446D0F884001F4616460D46EC
:101A0000202851D1DDB1D6B194F8800001284BD007
:101A1000012084F880004FF00008C4F88C80212059
:101A2000C4F884001834FEF7D9FDA6878146E687FE
:101A300054F8100C183CB0F5805F03D004E001208E
:101A4000BDE8F883206920B12E46002584F8808007
:101A500010E00026FAE78021204600F069FCB8B9C2
:101A6000C6B116F8010B21688862B4F85600401E12
:101A7000A4F85600B4F856004B464FF00002009709
:101A80000028E8D14FF04001204600F051FC30B171
:101A90000320D5E735F8020BC0F30800E3E7202068
:101AA000C4F884000020CBE70220C9E7FEE700006D
:101AB0002DE9F04387B014216846FEF7E3FB29487F
:101AC000C16C41F02001C164C16C01F0200105919D
:101AD000C16C41F00401C164C16C01F004010591C5
:101AE000C16C41F00201C164C16C01F002010591B9
:101AF000C16C41F00101C164C06CDFF86C8000F082
:101B000001004FF482640590012221464046FEF711
:101B10005FFD0122DFF85490170339464846FEF76F
:101B200057FD0125CDE9004500240326CDE90246F5
:101B300069464046FEF720FC00970396CDE9015424
:101B400069464846FEF718FC680200904FF488107A
:101B5000CDE9010469464846FEF70EFC07B0BDE832
:101B6000F083000000100240000800480004004814
:101B7000124810B5104901604FF482714160002194
:101B80004FF4E062C0E902124FF400720161C0E953
:101B900005122022C0E9072107224162C0E90A128A
:101BA000016308214163FFF79BFA002803D0BDE8D9
:101BB0001040FEF7CDBB10BD0038004014000020DF
:101BC000124810B5104901604FF482714160002144
:101BD0004FF4E062C0E90212022202610122426176
:101BE000520282612022C0E9072107224162C0E936
:101BF0000A1201634163FFF773FA002803D0BDE8BE
:101C00001040FEF7A5BB10BD003C0040780000204E
:101C1000184810B5164901604FF4E13141600021C8
:101C200081600C22C160C0E904128161C16101625E
:101C300041628162FFF768FE08B1FEF789FB00216F
:101C40000C48FFF73BFE08B1FEF782FB0021094874
:101C5000FFF70EFE08B1FEF77BFB0648FFF7E9FD34
:101C6000002803D0BDE81040FEF772BB10BD000095
:101C700000380140DC000020FEE7FEE770472DE958
:101C8000F843044640684FF48276154689464FF47F
:101C900000474FF48068B04209D1A068B84201D033
:101CA000404504D12068016821F0400101604B46A5
:101CB000002280212046009500F0B0F880B96068CD
:101CC000B04214D1A068B84201D040450FD14B4674
:101CD00000224FF4C0612046009500F02FF830B18B
:101CE000206E40F0200020660320BDE8F88300202D
:101CF000FBE7F8B515460E460B4600920446002257
:101D00004FF4C05100F01AF888B933460022802100
:101D10002046009500F082F848B9334600224FF47F
:101D2000C0612046009500F009F8002804D0206E1C
:101D300040F0200020660320F8BD00002DE9FE4F92
:101D40004FF0000A984617460E4604460C9D8DF843
:101D500004A0FEF743FC411BA8EB0105FEF73EFC87
:101D6000814620684FF4C06B0C3002902A4800680E
:101D7000C0EBC00000EB8000000D6843009043E022
:101D80005E4506D12FB9029800788DF804009DF8C1
:101D90000400B8F1FF3F37D0FEF720FCA0EB0900AC
:101DA000A84203D215B1009858B32BE020684168CF
:101DB00021F0E00141606068B0F5827F0BD1A0683E
:101DC000B0F5004F02D0B0F5806F04D120680168F3
:101DD00021F040010160A06AB0F5005F09D12068E0
:101DE000016821F4005101602068016841F400514C
:101DF0000160012084F85D0084F85CA00320BDE848
:101E0000FE8F0025401E0090206880683040B84258
:101E1000B6D10020F3E700000C0000202DE9F843C4
:101E20001E46914688460446089DFEF7D7FB401B98
:101E3000351AFEF7D3FB074625480068C0F3CB30C0
:101E4000684338E0701C37D0FEF7C8FBC01BA842BF
:101E500003D215B1009860B32CE02068416821F0EE
:101E6000E00141606068B0F5827F0BD1A068B0F5F9
:101E7000004F02D0B0F5806F04D12068016821F0D6
:101E800040010160A06AB0F5005F09D120680168D7
:101E900021F4005101602068016841F400510160A3
:101EA000012084F85D00002084F85C000320BDE878
:101EB000F8830025401E00902068816838EA010000
:101EC00004D000214945BDD10020F0E70121F9E708
:101ED0000C0000207047FEF787BB10B594B0382186
:101EE0006846FEF7CFF914210EA8FEF7CBF94FF4A0
:101EF0000070FEF7FDFB012000900004019002201D
:101F00000324CDE907044B21CDE909010B900C9086
:101F10000D906846FEF7DEFE08B172B6FEE70F20B0
:101F2000CDE90E04002010901190129004210EA80B
:101F3000FEF788FD002801D072B6FEE714B010BD90
:101F40000248016841F470010160704788ED00E0CB
:101F500030B5416EB9B1026891689268C1F34261CF
:101F60000B4B520F9C5CE50003F10804A25CB5FB2F
:101F7000F2F2A0F86A205A5C615CD200B2FBF1F187
:101F8000A0F8681030BD0121A0F86A10F8E7000041
:101F9000D028000890F82810C90706D001684A68C0
:101FA000C36A22F400321A434A6090F82810890765
:101FB00006D501684A68036B22F480321A434A60EE
:101FC00090F82810490706D501684A68436B22F447
:101FD00080221A434A6090F82810090706D5016844
:101FE0004A68836B22F400421A434A6090F8281032
:101FF000C90606D501688A68C36B22F480521A4369
:102000008A6090F82810890606D501688A68036CF2
:1020100022F400521A438A6090F82810490611D51C
:1020200001684A68436C22F480121A434A60416C8A
:10203000B1F5801F06D101684A68836C22F4C002A2
:102040001A434A6090F82810090606D501684A68C4
:10205000C06C22F4002202434A607047F8B50026A3
:102060000446C0F88C60FEF7B9FA0546206800689F
:102070006FF07E47000708D52B4600224FF4001171
:102080002046009700F054F960B9206800684007C6
:102090000AD52B4600224FF480012046009700F01D
:1020A00047F908B10320F8BD2020C4F88400C4F823
:1020B000880044F86C6F00202675F8BD2DE9F041CA
:1020C0000446016880682269E3691043626900255B
:1020D0001A431043DFF82CC20A688B4B1A400243A4
:1020E0000A6020684168E26821F440511143416070
:1020F0002168A069614501D0226A10438A68834B38
:102100001A4002438A602068C16A626A21F00F01A6
:102110001143C1627E4923687E488B420DD1D0F8BD
:10212000880010F0030006D0012855D0022842D0C4
:1021300003283FD152E001203DE077498B420BD18B
:10214000D0F8880010F00C0035D0042833D00828CF
:1021500040D00C282ED141E070498B420BD1D0F8F1
:10216000880010F0300026D0102835D0202831D03B
:1021700030281FD132E06A498B420BD1D0F8880059
:1021800010F0C00017D0402826D0802822D0C028C8
:1021900010D123E063450DD1D0F8880010F44060E1
:1021A00009D0B0F5806F17D0B0F5006F12D0B0F540
:1021B000406F13D010205B495B4F00264FF4004264
:1021C00063453BD160B1022813D004280BD0082806
:1021D00072D10DE00220EEE70420ECE70820EAE7E8
:1021E000FEF71EFD01E0FEF73FFD010001D17CE09E
:1021F0001146606A37F810206768B1FBF2F007EB10
:102200004703834270D8B0EB073F6DD800230846E0
:102210001946FDF7FFFF090241EA10610202780842
:10222000101871413A460023FDF7F4FF3F4AA0F52C
:102230004071914258D82168C86056E0E3694FF672
:10224000EF7893422CD109284ED2DFE800F0050840
:10225000114D0D4D4D4D1000FEF7E2FC01E0FEF773
:10226000F1FC010004D140E0FEF7FEFCF9E7114665
:10227000606A37F81000B1FBF0F04100606801EBD4
:102280005001B1FBF0F0A0F1100141452CD84FF600
:10229000F0710140C0F3420001432068C16024E0B6
:1022A000092821D2DFE800F0050912200E202020A5
:1022B0001100FEF7B5FC02E016E0FEF7C3FC0100DA
:1022C00004D112E0FEF7D0FCF9E71146606A37F856
:1022D0001000B1FBF0F1606801EB5001B1FBF0F0D0
:1022E000A0F1100141450AD901250120A4F86A0096
:1022F00024F8680F2846A660E660BDE8F08180B249
:1023000099E7000000800040F369FFCFFFF4FF1160
:1023100000380140001002400044004000480040E6
:10232000004C00400024F400B8280008FFFC0F0017
:102330002DE9F0479A4617460E4604464FF000092D
:102340004FF02008089D4AE0681C48D0FEF746F987
:10235000A0EB0A00A8422AD84DB3206801684907BB
:102360003DD5C069C043000539D421684FF40060F1
:102370000862206850E8001F21F4D07140E8001284
:10238000002AF6D12068083050E8001F21F0010132
:1023900040E80012002AF5D144F8848FC4F8048084
:1023A000C4F8088004F8049C0320BDE8F087216885
:1023B00051E8000F20F4D07041E80002002AF6D165
:1023C0002068083050E8001F21F0010140E80012A9
:1023D000002AF5D144F8848FC4F80480E2E720682D
:1023E000C06936EA000004D00020B842ACD000201A
:1023F000DBE70120F9E7FEE72DE9FC41044613A0E5
:10240000134E00684FF48055019000222946304653
:10241000FEF7DEF84FF47A773B46042201A90D4817
:10242000FEF7FEFF3B46022269460A48FEF734FFEC
:102430009DF801009DF80010012200EB0120208092
:1024400029463046FEF7C4F8BDE8FC819000000044
:1024500000040048140000202DE9FC41044611A0AE
:10246000114E00684FF480550190002229463046F5
:10247000FEF7AEF84FF47A773B46042201A90B48E9
:10248000FEF7CEFF3B46012269460848FEF704FFEF
:102490009DF800002070012229463046FEF798F88A
:1024A000BDE8FC81AB0000000004004814000020DF
:1024B0000FB4054B10B503A9044A029800F028F8A0
:1024C00010BC5DF814FB0000D127000810000020AC
:1024D0000907090E002804DB00F1E02080F8001451
:1024E000704700F00F0000F1E02080F8141D7047E5
:1024F00002E008C8121F08C1002AFAD170477047CD
:10250000002001E001C1121F002AFBD1704700002A
:102510002DE9FF4F8DB09B460F460446002606E08E
:1025200025280BD05A460F999047641C761C2078BA
:102530000028F5D111B03046BDE8F08F0025A8463F
:102540000122984900E0054314F8013F203B02FABC
:1025500003F00842F7D120782E2817D114F8010F84
:1025600045F004052A280ED06FF02F022078A0F144
:10257000300109290AD808EB880102EB410100EB80
:102580000108641CF2E757F8048B641C20786C285F
:102590000DD004DC4C2812D06A2811D104E0742834
:1025A0000DD07A280CD10AE045F4001507E06178D7
:1025B00045F48015814202D1641C05F58015641C28
:1025C0002078692844D008DC0028B3D0582867D088
:1025D00063280FD0642808D13AE0702865D07328AA
:1025E00012D075285AD078285AD05A460F99904759
:1025F000761CD5E017F8040B8DF8000000208DF84C
:102600000100E946012003E057F8049B4FF0FF303A
:1026100069074FF0000501D40AE06D1C45450DDA4D
:102620008542FADB19F805100029F6D106E06D1C89
:102630008542FCDB19F805100029F8D12E4404E08E
:1026400019F8010B5A460F9990476D1EF8D2A7E072
:102650000A200021CDE90801C5F3025002280CD060
:1026600001CFC117021E71F100020CDA0023D0EB7A
:10267000030063EB01012D2208E0FF1D27F007078F
:10268000F7E80201EEE72A0504D52B228DF8282071
:1026900001223CE0EA073AD02022F7E70A2000E0D6
:1026A00010200021CDE9080107E01020002145F0AD
:1026B0000405CDE908014FF00808C5F302500228CF
:1026C00010D001CF00214FF0000A2A0720D5227830
:1026D000702A0DD0DDE908C38CF0100C5CEA030C05
:1026E0000CD015E0FF1D27F00707F7E80201EAE725
:1026F00040228DF828204FF0010A0CE050EA010337
:1027000006D030238DF828308DF8292002229246F9
:102710002278582A04D024A20DF120090B9209E056
:1027200026A2F9E7DDE90823FDF774FD0B9B9B5C0E
:1027300009F8013D50EA0102F4D1ADEB0900203067
:102740000890680701D44FF001080899884503DD17
:102750000898A8EB000000E000208046002506E075
:102760000AA85A46405D0F9990476D1C761C554546
:10277000F6DB04E030205A460F999047761CB8F1FA
:102780000001A8F10108F5DC05E019F8010B5A4633
:102790000F999047761C0899481E08900029F4DC90
:1027A000641CC4E609280100303132333435363731
:1027B000383961626364656600000000303132338D
:1027C000343536373839414243444546000000002D
:1027D00013B54FF47A73012269460248FFF708F9EE
:1027E00000981CBDDC0000200EB50020ADF80000F4
:1027F0008DF804008DF80800FDF7FEFEFFF76DFB75
:10280000FFF756F9FFF7B4F9FFF7DAF9FFF700FA27
:1028100019A0FFF74DFE6846FFF7EEFD01A8FFF790
:102820001BFE02A8FDF76AFD9DF80400172809D1D8
:10283000BDF80000A0F56F41173903D19DF80800DD
:10284000242802D001200028FDD10D4C4FF4FA7548
:10285000BDF800209DF804100AA0FFF729FE9DF89E
:10286000081010A0FFF724FE10212046FDF7A8FE57
:102870002846FDF76FFDEBE7746573740D0A0000E1
:1028800000080048466C6173685F49645F383A2508
:10289000582C20466C6173685F49645F31363A2575
:1028A000580D0A00424D493237305F49443A30787A
:1028B00025780D0A00000000010002000400060057
:1028C00008000A000C0010002000400080000001F9
:1028D00001010103070100000804020408010101CD
:1028E00000000000000000000102030406070809C0
:1028F0000000000001020304182900080000002065
:1029000014000000F02400082C2900081400002006
:102910005C05000000250008100000000100000018
:0C292000000000000024F4000000000093
:04000005080001D915
:00000001FF
