:020000040800F2
:1000000070170020F10100081721000815200008D2
:1000100015210008F3070008E33B0008000000007A
:10002000000000000000000000000000952400080F
:10003000AD0800080000000093240008A124000877
:100040000B0200080B0200080B0200080B0200085C
:100050000B0200080B0200080B0200080B0200084C
:100060000B0200080B0200080B0200080B0200083C
:100070000B0200080B0200080B0200080B0200082C
:100080000B020008000000000B0200080B02000831
:10009000753B00080B0200080B0200080B02000869
:1000A0000B0200080B0200080B0200080B020008FC
:1000B0000B0200080B0200080B0200080B020008EC
:1000C0000B0200080B0200080B0200080B020008DC
:1000D0000B0200080B0200080B0200080B020008CC
:1000E0000B0200080B0200080B0200080B020008BC
:1000F0000B0200080B0200080B02000800000000C1
:10010000000000000B020008000000000B020008C5
:100110000B020008000000000B0200080B020008A0
:100120000B0200080B0200080B0200080B0200087B
:100130000B02000800000000000000000B02000895
:100140000B0200080B020008000000000000000085
:10015000000000000000000000000000000000009F
:100160000000000000000000000000000B0200087A
:100170000B0200080000000000000000000000006A
:10018000000000000B02000800000000000000005A
:10019000000000000000000000000000000000005F
:1001A00000000000000000000B0200080B02000825
:1001B0000B0200080B0200080B0200080000000000
:1001C000000000000B02000800000000000000001A
:1001D0000B0200080B020008DFF810D000F03EFA16
:1001E00000480047F9440008AFF300807017002072
:1001F0000648804706480047FEE7FEE7FEE7FEE7C1
:10020000FEE7FEE7FEE7FEE7FEE7FEE71125000852
:10021000D901000840EA01039B0703D009E008C99F
:10022000121F08C0042AFAD203E011F8013B00F8BB
:10023000013B521EF9D27047D2B201E000F8012B07
:10024000491EFBD270470022F6E710B513460A4656
:1002500004461946FFF7F0FF204610BD30B50B46A7
:10026000014600202022012409E021FA02F59D42E6
:1002700005D303FA02F5491B04FA02F52844151EBA
:10028000A2F10102F1DC30BD2DE9F05F054600204E
:1002900092469B4688460646814640241BE02846F7
:1002A00041464746224600F0FAF953465A46C01ADC
:1002B000914110D311461846224600F0E1F92D1A5B
:1002C00067EB01084F4622460120002100F0D8F9D3
:1002D00017EB00094E41201EA4F10104DFDC484663
:1002E00031462A464346BDE8F09F2DE9FE4F804641
:1002F00081EA0300C00F0C46009021F0004123F07A
:100300000045B8EB0200A94105D24046214690467F
:100310001C460B46024623F00040104347D0270DF1
:10032000C7F30A00C3F30A510290401A0190402813
:100330006BDAC3F3130040F4801B0098924620B19F
:100340000023D2EB030A63EB0B0B01985946C0F173
:100350004002504600F094F906460D465046594674
:10036000019A00F0ACF910EB08006141002487EA23
:10037000115284EAE7731A4340D0009A62B3019A9B
:10038000012A4FEA075215DC001B61EB02014FF016
:10039000004202EA0752CDE90042001C41F58011FB
:1003A00032462B4600F0ACF903B0BDE8F08F404672
:1003B0002146F9E7001B61EB0201001C41F58013A7
:1003C00000185B412018A2F5001747EB030140EA33
:1003D000D570B6196D4111E06D084FEA360645EA51
:1003E000C0754FEA0752001B61EB0201001C41F58A
:1003F000801149084FEA30000019514132462B461E
:1004000003B0BDE8F04F00F06CB900980122400045
:100410000023D0EB020263EBE073009821464FEA21
:10042000E074B8EB000061EB0401E9E783F00043FE
:100430005BE781F0004158E72DE9FE4F81EA0304B4
:1004400004F0004421F0004100944FF0000B23F031
:10045000004350EA01045ED052EA03045BD0C3F3C8
:100460000A54C1F30A552C44A4F2F3340194A0FBBE
:100470000254C1F3130141F48011C3F3130343F495
:10048000801301FB024400FB034E840A970A44EAEE
:10049000815447EA8357A4FB076802958D0A05FB40
:1004A00007854FEA932C04FB0C542705029D4FEA65
:1004B000065847EA1637B5EB08056EEB070C870EB2
:1004C000920E47EA811742EA8312A7FB0201B6EBBC
:1004D0000B0164EB00042B0D43EA0C335E1844EB74
:1004E0001C50DA465146E7FB0201C5F313044FEAFC
:1004F0000B3343EA14534FEA0432019C43EA0603E8
:10050000A4F10C040294009CCDE900B400F0F8F8CA
:1005100003B0BDE8F08F00200146F9E72DE9F04D6A
:1005200081EA030404F0004B21F0004514464FF02B
:10053000000A23F0004150EA050220D054EA0102EB
:100540001DD0C5F30A570246C5F31303C1F31300C8
:10055000C1F30A5640F4801543F48013A7EB060854
:10056000101BD64608F2FD3873EB050002D308F1E4
:10057000010801E092185B41B8F1000F03DA002096
:100580000146BDE8F08D00204FF4801106468446F8
:100590000EE0171B73EB050705D3121B63EB050376
:1005A00006434CEA010C49084FEA300092185B41BF
:1005B00050EA0107EDD152EA030012D082EA0400AA
:1005C00083EA0501084305D0101BAB4106D2012286
:1005D000002306E000224FF0004302E06FF001022A
:1005E00053101AEB06004CEB085110EB0A0041EBDC
:1005F0000B01BDE8F04D00F074B8C1F30A52C1F32D
:10060000130140F2FF3341F480119A4202DA0020D4
:100610000146704740F233439A42A2F2334202DC71
:10062000524200F03CB800F02BB8000030B5041E78
:1006300071F1000404DB4FF00044404264EB01011F
:10064000141E73F1000405DB1C464FF000435242B8
:1006500063EB0403994208BF904230BD064C074D3E
:1006600006E0E06840F0010394E807009847103482
:10067000AC42F6D3FFF7B4FD80450008A045000862
:10068000202A04DB203A00FA02F100207047914052
:10069000C2F1200320FA03F3194390407047202A47
:1006A00004DB203A21FA02F00021704721FA02F31C
:1006B000D040C2F120029140084319467047202AD9
:1006C00006DBCB17203A41FA02F043EAE07306E07A
:1006D00041FA02F3D040C2F120029140084319468A
:1006E000704710B5141E73F1000408DA401C41F184
:1006F000000192185B411A4301D120F0010010BDA6
:100700002DE9F04D92469B4611B1B1FA81F202E01B
:10071000B0FA80F220329046FFF7B2FF04460F464F
:1007200040EA0A0041EA0B0153465A46084313D0F7
:10073000114653EA010019D0C8F140025046FFF7B4
:10074000AEFF05460E46504659464246FFF798FF13
:10075000084305D0012004E020463946BDE8F08D6D
:100760000020054346EAE0762C4337430A986305A8
:10077000E40AA0EB08000022FD0A44EA47540A30CC
:1007800002D500200146E9E7010510196941DDE9BC
:10079000084500196941BDE8F04DA2E770B58C1815
:1007A00010F8015B15F0070301D110F8013B2A1185
:1007B00006D110F8012B03E010F8016B01F8016B72
:1007C0005B1EF9D12B0705D40023521E0DD401F86E
:1007D000013BFAE710F8013BCB1A921C03E013F837
:1007E000015B01F8015B521EF9D5A142D8D300206C
:1007F00070BDFEE7002070470020704710B5002252
:100800000449054802F00FF80449034802F002F8D1
:10081000002010BD700F0020A0060020700B0020EB
:1008200070B5044600780B4D532805D1012028707F
:100830008102094800F024F82078452801D10020E1
:1008400028702146054801F0E5FF044801F0AAFFA1
:10085000002070BD52000020700F0020A006002074
:10086000054810B5007820B14FF48061034800F0CE
:1008700007F8002010BD000052000020700F00207B
:10088000094A10B5D2F8BC22D2F814220AB10120CC
:1008900010BD0A460146044801F0C5FFBDE81040FE
:1008A000014802F02AB80000A0060020704772B686
:1008B000FEE7000070B5044600F038F90546601CFC
:1008C00002D004484068044400F030F9401BA042C4
:1008D000FAD370BD680000202DE9F04FDFF82092B8
:1008E000002301260324A9F1040B85B00F2709F189
:1008F000040AABF1040EFAE006FA03F52A407CD0B4
:1009000091F804C00CF0030CBCF1010F02D0BCF153
:10091000020F26D1D0F808C0CDF800C04FEA430C32
:1009200004FA0CF8CDF810C0DDF800C02CEA080C71
:10093000CDF800C0D1F80C80DDF810C008FA0CF832
:10094000DDF800C048EA0C08C0F80880D0F804C000
:100950002CEA050C0D79C5F300159D4045EA0C0500
:1009600045600D79ED43AD070ED0C5684FEA4308E9
:1009700004FA08FC25EA0C05D1F808C00CFA08FCBA
:100980004CEA050CC0F80CC00D7905F00305022DEA
:1009900016D1DD0800EB850CCDF808C0DCF820800E
:1009A0005D074FEAD56C07FA0CF528EA05080D69D2
:1009B00005FA0CF5DDF808C045EA0805CCF820502A
:1009C00005684FEA430CCDF808C004FA0CFC25EA90
:1009D0000C0591F804C00CF00308DDF808C008FA13
:1009E0000CF848EA0508C0F800804D6815F4403F4F
:1009F0007CD0444DD5F860C000E077E04CF0010CAD
:100A0000C5F860C02D6E23F0030C05F001050095BC
:100A10003D4D65440295AD684FEA837C4FEA1C78F2
:100A200007FA08FC25EA0C05B0F1904F06D0DFF874
:100A3000DCC0604505D14FF0010C20E04FF0000C08
:100A40001DE0DFF8CCC0604502D14FF0020C16E08B
:100A5000DFF8C0C0604502D14FF0030C0FE0DFF8B3
:100A6000B8C0604502D14FF0040C08E0DFF8ACC01C
:100A7000604502D14FF0050C01E04FF0060C0CFA76
:100A800008FC4CEA050C029DC5F808C0D9F80050D6
:100A9000CC46D1F8048095435FEAC82800D51543B9
:100AA000CCF80050DAF80050D446D1F804809543D1
:100AB0005FEA882800D51543CCF80050DBF80050D9
:100AC000DC46D1F8048095435FEA883800D51543A9
:100AD000CCF80050DEF80050F446D1F8048095437D
:100AE0005FEAC83800D51543CCF800505B1C0A6893
:100AF00032FA03F57FF400AF05B0BDE8F08F0000D7
:100B000008040140001002400000014000040048B9
:100B100000080048000C004800100048001400487D
:100B20000AB18161704781627047000001488068A6
:100B30007047000068000020024881684268114444
:100B4000816070476800002010B50024032000F089
:100B500073F80F2000F008F808B1012401E000F05C
:100B600025F8204610BD000070B50E4E0546002445
:100B7000706898B14FF47A71B1FBF0F00A490968D6
:100B8000B1FBF0F001F032FA40B9102D06D200228C
:100B90002946501E00F030F8356000E00124204660
:100BA00070BD000068000020740000200A4882B078
:100BB000016E41F001010166016E01F00101009139
:100BC000816D41F080518165806D00F08050009012
:100BD00002B000F095BD000000100240002809DBC3
:100BE00000F01F02012191404009800000F1E02047
:100BF000C0F8001170470000F0B40E4B1B680C46A3
:100C0000C3F30223C3F10705042D00D90425191DE0
:100C1000072901D2002300E0DB1E012606FA05F1B8
:100C2000491E214099409E40761E16403143F0BC3B
:100C300002F0F2BF0CED00E0064900F00702086880
:100C40004FF6FF03184040EA0220034A10430860B1
:100C5000704700000CED00E00000FA050122016879
:100C6000C0F8E822002280F8E02231F8540F40F06A
:100C700001000880088840F0020008801046704794
:100C800070B50F4D044669B101290AD1D4F8F002BC
:100C900002F000F9A069002803D0286840F006009F
:100CA000286070BDA06928B101F0FCFB286820F025
:100CB00006002860D4F8F002BDE8704002F082B867
:100CC00010ED00E010B50C0607D501F0070101EBAF
:100CD000810100EBC100283005E001EB810100EB50
:100CE000C10000F5B47099B232B1012202730181E2
:100CF000190C4181002010BD00220273C180F9E768
:100D000001EB810200EBC202D0F8F002D26B01F0DD
:100D100036BF01EB810200EBC202D0F8F002D2F83C
:100D20007C2101F080BF70B504460B0601F007007E
:100D300000EB800104EBC1014FF001024FF0000510
:100D400003D581F82920283103E081F8695101F5A4
:100D5000B471087094F8A802012808D084F8A82279
:100D6000206802F0C7FB84F8A852002070BD022062
:100D700070BD70B5044601F00F006268904201D961
:100D8000012070BD0B0601F0070000EB800104EBB1
:100D9000C1014FF001024FF0000503D581F8292071
:100DA000283103E081F8695101F5B4718D70087044
:100DB00094F8A802012808D084F8A822206802F03C
:100DC00038FC84F8A852002070BD022070BD2DE9C7
:100DD000F04704685FEA42480B788D69B4F85080A8
:100DE0004FF0000C4BF68F7748F2800648F68F796B
:100DF00048F2C00A444428D540F2024808EBC30830
:100E000034F80840C4F30904A54203D32D1B8D61B7
:100E100002D00BE0C1F818C0D0F800C03CF8235055
:100E20003D4085F4005535432CF82350520609D532
:100E30000B78056835F8232002EA090242EA0A0223
:100E400025F8232074B30A8927E040F2064808EB0E
:100E5000C30834F80840C4F30904A54203D32D1B8A
:100E60008D6102D00BE0C1F818C0D0F800C03CF88A
:100E700023503D4085F4005535432CF8235052064D
:100E800009D40D78036833F8252002EA090242EA02
:100E90000A0223F825202CB14A89496900682346B3
:100EA00002F071FE2046BDE8F0872DE9F0470546C7
:100EB00000680C465FEA42681646D1F818C02278EE
:100EC000B0F8508048F68F774CF280094FF4004319
:100ED0004FF6FF7A4FF0000140447BD540F20248C4
:100EE00008EBC20830F80800C0F30900844514D9A3
:100EF000BCEB000CC4F818C010D0760408D5D5F8A7
:100F000000C03CF822603E4046EA09062CF8226008
:100F100094F82420012A50D04EE1A161607810B1EC
:100F2000012813D01AE02868B0F85030184400EBBC
:100F3000C200B0F8022422F4F842A0F80224B0F86B
:100F4000022442F40042A0F8022407E02868B0F826
:100F50005030184400EBC200A0F8021462782868F0
:100F600012B1012A11D018E0B0F8501008442178CD
:100F700000EBC100B0F8061421F4F841A0F8061403
:100F8000B0F8061441F4004105E0B0F850201044D8
:100F9000227800EBC200A0F8061421782846FFF75B
:100FA000AFFE7004B8D521782A6832F821003840A5
:100FB00040EA090022F82100FEE062690244626111
:100FC000E2690244E2612669226AB24203D33046F2
:100FD000111A04E038E084F824100AB110462162A6
:100FE000617811B1012923D02BE02968B1F8502094
:100FF0003E281144227801EBC20101F2024106D9D8
:101000004209C60600D1521E43EA82220EE030B1E8
:101010004208C30700D0521C0AEA822206E00A886E
:1010200022F4F8420A800A8842F400420A8008E06A
:101030002968B1F850201144227801EBC201A1F8CF
:10104000020483B22289B3E040F2064808EBC208EA
:1010500030F80800C0F30900844514D3BCEB000C41
:10106000C4F818C010D0760408D4D5F800C03CF8F5
:1010700022603E4046EA09062CF8226094F82420BB
:10108000012A50D098E0A161607810B1012813D0F6
:101090001AE02868B0F85030184400EBC200B0F8ED
:1010A000022422F4F842A0F80224B0F8022442F408
:1010B0000042A0F8022407E02868B0F85030184435
:1010C00000EBC200A0F802146278286812B1012A6D
:1010D00011D018E0B0F850100844217800EBC1009E
:1010E000B0F8061421F4F841A0F80614B0F806147C
:1010F00041F4004105E0B0F850201044227800EBA4
:10110000C200A0F8061421782846FFF7F9FD700404
:1011100052D42278296831F82200384040EA090088
:1011200021F8220048E0626902446261E2690244F7
:10113000E2612669226AB24203D33046111A216263
:1011400004E00AB11046216284F82410627829680C
:1011500012B1012A22D029E0B1F850203E281144D2
:10116000227801EBC20101F2064106D94209C60606
:1011700000D1521E43EA82220EE030B14208C3077A
:1011800000D0521C0AEA822206E00A8822F4F842C1
:101190000A800A8842F400420A8007E0B1F8502031
:1011A0001144227801EBC201A1F80604628983B2DE
:1011B0006169286802F002FD2278296831F822006E
:1011C00048F6BF73184080F0300048F2800318439F
:1011D00021F822000020BDE8F08701F0070101EBB3
:1011E000810100EBC100D0F8840170472DE9F04186
:1011F00004460F0601F0070000EB800104EBC1017B
:101200004FF001064FF0000503D581F82960283121
:1012100003E081F8695101F5B47108700A61CB707F
:101220004A7802B1C881022B00D10D7194F8A8024E
:10123000012809D084F8A862206802F027F828461F
:1012400084F8A852BDE8F0810220FBE770B50C4697
:1012500001F0070505EB850100EBC101C1E95F2342
:101260000022C1F8842181F8692181F8685101F5D3
:10127000B4716207006802F031FA002070BD70B5E9
:10128000044601F007006268904201D9012070BD58
:101290000B064FF000054FF0010207D500EB80016F
:1012A00004EBC10181F82920283107E001EB81011D
:1012B00004EBC10181F8695101F5B4718A700870BD
:1012C00094F8A802012808D084F8A822206802F027
:1012D000ECF984F8A852002070BD022070BD70B5F2
:1012E0000C4601F0070505EB850100EBC101C1E9E2
:1012F0000F23012281F84C208B6400234B6481F87A
:10130000292001F8285F6207006802F0E7F9002051
:1013100070BD10B50446006802F032FC010404D52B
:101320002046BDE8104000F0F7BE41050ED520680C
:1013300030F8441F21F480610180204600F014F948
:101340002046BDE81040002100F03AB9410405D51F
:10135000206830F8441F21F480417DE0810405D5E8
:10136000206830F8441F21F4005175E0C1041FD5F6
:10137000206830F8401F21F004010180206830F817
:10138000401F21F00801018094F8E002012806D1F5
:10139000002084F8E00201462046FFF771FC204659
:1013A00000F0F6F8206830F8441F21F4805153E033
:1013B000010512D5206830F8401F41F00801018076
:1013C000206830F8441F21F400610180206830F863
:1013D000401F41F0040101800AE0010629D5206880
:1013E00030F8441F21F08001018094F8E00218B128
:1013F000204600F015F910BD206830F8401F41F07C
:1014000004010180206830F8401F41F0080101808C
:10141000012084F8E0022068B0F854003C2101EA81
:101420009000C4F8E4022046BDE810400121FFF717
:1014300027BC810509D5206830F8441F21F40071CC
:101440000180204600F0B8F810BDC005FCD520682A
:1014500030F8441F21F48071018010BD70B586B052
:10146000040004D094F8A902002518B107E0012077
:1014700006B070BD84F8A852204600F049F8032059
:1014800084F8A902206802F0CCF8002001260EE0C2
:1014900000EB800104EBC10181F8296001F8280FFD
:1014A000C881CD700D614D61401CC0B28D61616815
:1014B0008142EDD8002011E000EB800104EBC10176
:1014C00081F8695181F8680181F86B51C1F8785150
:1014D000C1F87C51401CC0B2C1F8805161688142A2
:1014E000EAD8142204F110016846FEF793FE94E84E
:1014F0000F0002F08DF884F8245084F8A962E069A6
:10150000012802D12046FFF7A9FB0020B0E7000028
:1015100010B592B0044644216846FEF794FE104987
:10152000206888421AD14014009000200D9068462F
:1015300000F0EEF808B1FFF7BAF90A48816D41F4FE
:1015400000018165806D002200F4000011901146B9
:101550001420FFF751FB1420FFF740FB12B010BD21
:10156000005C00400010024070B504468068012510
:10157000022801D0FFF79BF92946D4F8F00201F0C8
:101580003BFCD4F8F002BDE8704001F0EEBB000077
:1015900010B50446806930B10648016821F00601A3
:1015A000016000F07FFFD4F8F002BDE8104001F0C8
:1015B00009BC000010ED00E0D0F8F00201F00CBC16
:1015C00010B5044690F8A80201280BD0012084F839
:1015D000A80284F82410206802F0E9FA002084F8B8
:1015E000A80210BD022010BDD0F8F02200F52C7129
:1015F000104601F00DBC10B5044690F8A802012871
:101600000CD0012084F8A802206802F0AAFA206811
:1016100001F0F7FF002084F8A80210BD022010BDE1
:1016200010B50446D0F8F00201F034FCA06900289F
:1016300004D00348016841F00601016010BD0000BC
:1016400010ED00E02B492C4B0A6832214A432B490C
:1016500040B1B0F5007F086829D020F4C06040F4A4
:1016600080602CE00868C0F34120022804D051F8C3
:10167000800F20F4807022E0D1F8800020F4807088
:10168000C1F88000086820F4C06040F40070086071
:10169000B2FBF3F0401C00E0401E4A69520501D540
:1016A0000028F9D1486940050AD503207047C0F3E6
:1016B0004120022806D051F8800F40F48070086065
:1016C00000207047D1F8800040F48070C1F880009D
:1016D000086820F4C06040F400700860B2FBF3F0CA
:1016E000401C00E0401E4A695205DBD50028F9D1B4
:1016F000D8E700007400002040420F000070004056
:101700000248816841F48041816070470070004068
:101710002DE9F8430446006800269D4D00035ED580
:10172000A86D0027C00008D4A86D40F08050A865BF
:10173000A86D012700F080500090DFF85892D9F88A
:10174000001041F48071C9F80010FFF7EFF98046EE
:1017500006E000BFFFF7EAF9A0EB080002282BD84B
:10176000D9F80000C005F5D5D5F8900010F4407008
:1017700014D0216C814211D0D5F89000D5F890108A
:1017800020F4407041F48031C5F89010D5F89010E5
:1017900021F48031C5F89010C5F89000C00711D031
:1017A000FFF7C4F9804641F2883907E0FFF7BEF938
:1017B000A0EB0801494501D903260BE0D5F89000BC
:1017C0008007F3D5D5F89000216C20F440700843D1
:1017D000C5F890001FB1A86D20F08050A865207852
:1017E000C00707D0D5F88800616820F003000843DF
:1017F000C5F888002078800707D5D5F88800A1684B
:1018000020F00C000843C5F888002078400707D571
:10181000D5F88800E16820F030000843C5F888005A
:101820002078000707D5D5F88800216920F0C0008E
:101830000843C5F888002078800607D5D5F88800C9
:10184000616920F440600843C5F8880020784006AC
:1018500007D5D5F88800A16920F440500843C5F8A1
:1018600088002078000607D5D5F88800E16920F4C3
:1018700040400843C5F888002088C00507D5D5F842
:101880008800216A20F440300843C5F88800208889
:10189000800507D5D5F88800616A20F44020084308
:1018A000C5F88800208840050FD5D5F88800A16AC2
:1018B00020F440100843C5F88800A06AB0F5801FE6
:1018C00003D1E86840F48010E860208800050FD557
:1018D000D5F88800E16A20F440000843C5F8880084
:1018E000E06AB0F5800F03D1E86840F48010E8604A
:1018F0002088C0040FD5D5F88800216B20F04070F7
:101900000843C5F88800206BB0F1807F03D1E868F8
:1019100040F48010E86020884FF0006180040ED50C
:10192000D5F88800626B20F040601043C5F888004D
:10193000606B884203D1E86840F48010E86020883A
:1019400040040ED5D5F88800A26B20F0406010430B
:10195000C5F88800A06B884203D1E86840F4801085
:10196000E860208800040FD5D5F88800E16B20F0EE
:1019700040500843C5F88800E06BB0F1805F03D1A8
:10198000E86840F48030E8603046BDE8F883000045
:1019900000100240007000402DE9F0470E4605009F
:1019A0004FF0000725D0DFF8AC81D8F8000000F038
:1019B0000F00B0420CD2D8F8001021F00F013143D3
:1019C000C8F80010D8F8000000F00F00B04210D1A5
:1019D0002968614CC80741F2883A5AD06868DFF834
:1019E0007C91032808D0022820682DD040050028CB
:1019F0002CDB0120BDE8F08720688001F9D5E06884
:101A000000F00302E068C0F30310401C032A19D061
:101A1000534A00BFB2FBF0F0E268C2F30622504323
:101A2000E268C2F34162521C5200B0FBF2F048453A
:101A300017D9A06810F0F00F0CD0880711D5A8684E
:101A400040B10EE0474AE5E78003D0E700F092F8A6
:101A5000484506D9A06820F0F00040F08000A06062
:101A60008027A068696820F003000843A060FFF7A2
:101A70005DF8814606E000BFFFF758F8A0EB0901CA
:101A800051453AD8A068696800F00C00B0EB810FAE
:101A9000F2D12868810714D5400703D5A06840F427
:101AA000E060A0602878000705D5A06820F46050A9
:101AB00040F4E060A060A068A96820F0F00008434E
:101AC00004E0802F03D1A06820F0F000A060D8F8D7
:101AD0000010404601F00F01B14216D9016821F013
:101AE0000F0131430160FFF721F8074607E000BF0F
:101AF000FFF71CF8C11B514501D903207AE7D8F83C
:101B0000000000F00F00B042F2D12878400705D560
:101B1000A068E96820F4E0600843A0602878000726
:101B200006D5A068296920F4605040EAC100A06091
:101B300000F020F8A1680C4AC1F30311515C01F0D8
:101B40001F01C8400949086009480068BDE8F0471E
:101B5000FFF70AB8002002400010024000B4C4049D
:101B60000024F40000127A00704500087400002080
:101B700068000020184910B58868C0F38102174832
:101B8000012A0BD08A684310C2F38102022A06D0D0
:101B90008A68C2F38102032A03D0002010BD1846D0
:101BA00010BDCA6802F00304CA68C2F30312521CD3
:101BB000032C02D0B0FBF2F001E0B3FBF2F0CA68F4
:101BC000C968C2F306225043C1F34161491C490070
:101BD000B0FBF1F010BD0000001002400024F40042
:101BE0002DE9F84304007AD02078FA4DC00747D099
:101BF000A868E96800F00C0001F003010C2802D08D
:101C0000082817D001E0032914D06068B0F5803FA0
:101C100017D0B0F5A02F286817D020F480302860A6
:101C2000286820F4802028606068E0B1FEF77EFF1D
:101C3000064614E02868800322D560680028D2D0C8
:101C40001EE0286840F48030EDE740F480202860F2
:101C5000F7E700BFFEF76AFF801B642870D828688A
:101C60008003F7D50CE0FEF761FF064605E000BFF4
:101C7000FEF75CFF801B6428F0D828688003F7D447
:101C8000207880074CD5A868E96800F00C0001F0C6
:101C900003010C2802D004280DD001E002290AD04B
:101CA000E068002828682BD040F480702860FEF798
:101CB0003DFF064619E02868400502D5E068002887
:101CC00091D06868217C20F0FE4040EA01606860A5
:101CD000C1480068FEF748FF002800D120E076E107
:101CE000FEF724FF801B0228B8D828684005F7D5E6
:101CF0006868217C20F0FE4040EA016068600FE0E7
:101D000020F480702860FEF711FF064605E000BF52
:101D1000FEF70CFF801B0228A0D828684005F7D4E6
:101D20002078000729D560690028D5F8940013D0E1
:101D300040F00100C5F89400FEF7F8FE064606E004
:101D400090E000BFFEF7F2FE801B022886D8D5F88F
:101D500094008007F6D510E020F00100C5F894004B
:101D6000FEF7E4FE064604E0FEF7E0FE801B0228D4
:101D700078D8D5F894008007F6D42078400761D54C
:101D8000A86D0026C00008D4A86D40F08050A8655A
:101D9000A86D012600F08050009090480168C905A8
:101DA00011D40168804641F480710160FEF7BEFEE7
:101DB000074604E0FEF7BAFEC01B022852D8D8F846
:101DC0000000C005F6D5A068012815D00528D5F873
:101DD000900016D020F00100C5F89000D5F89000D2
:101DE00020F00400C5F89000A06841F28838B8B12E
:101DF000FEF79CFE07460EE0D5F8900040F001008B
:101E0000F0E740F00400C5F89000F5E7FEF78EFE1D
:101E1000C11B414526D8D5F890008007F6D50CE0C7
:101E2000FEF784FE074604E0FEF780FEC11B414535
:101E300018D8D5F890008007F6D41EB1A86D20F010
:101E40008050A8652078800629D5A0690028D5F89B
:101E5000980013D040F00100C5F89800FEF766FE28
:101E6000064606E077E000BFFEF760FE801B022812
:101E700077D8D5F898008007F6D510E020F001005B
:101E8000C5F89800FEF752FE064604E0FEF74EFE47
:101E9000801B022865D8D5F898008007F6D4E06941
:101EA000F0B3A968C1F38101032961D00228286831
:101EB00020F0807028600BD0E86820F00300E86014
:101EC000E86847490840E860FEF730FE04464BE00A
:101ED000FEF72CFE064604E0FEF728FE801B0228D3
:101EE0003FD828688001F7D4F4E908016FF00F02A9
:101EF00002EB01110843218A5204490802EB4151C7
:101F0000A26841EA02210843217D4FF07E42490840
:101F100002EB41610843217B40EAC160E96800E0CF
:101F200062E0304A11400843E860286840F0807061
:101F30002860E86840F08070E860FEF7F7FD04462E
:101F400005E000BFFEF7F2FD001B022809D8286853
:101F50008001F7D548E004E0FEF7E8FD001B022809
:101F600002D90320BDE8F88328688001F4D43BE05F
:101F70000128F7D0E868226A00F00301914226D1D7
:101F8000616A00F0F0020901103991421FD1A26A82
:101F900000F4FE41B1EB022F19D194F82C2000F08F
:101FA0007841B1EBC26F12D1218E00F4C002490812
:101FB0004905A1F50011914209D194F8341000F0BF
:101FC000C06049084906A1F1007181420CD001208E
:101FD000C8E70000001002406800002000700040C8
:101FE000FFFFEEFE0C809F010020BBE710B5401EF6
:101FF000B0F1807F01D3012010BD4FF0E02460617B
:102000000F21601701F008FE0020A0610720206169
:10201000002010BDFEE70000F0B500230A243025A3
:1020200037261F4611E000BFB4EB107F02D905EB45
:10203000107C01E006EB107C01F813C001EB430CAF
:1020400000015B1C8CF80170DBB29342ECD3F0BD55
:1020500010B586B014216846FEF7F5F81648C16C35
:1020600041F02001C164C16C01F020010591C16CF7
:1020700041F00401C164C16C01F004010591C16C1F
:1020800041F00101C164C06C0C4C00F001000590EE
:10209000012210212046FEF743FD10200090012070
:1020A0000190002002900320039069462046FEF72D
:1020B00013FC06B010BD00000010024000080048EC
:1020C00010B500220F49104800F034FD08B1FEF7AA
:1020D000EEFB0E490C4800F005FF08B1FEF7E7FBE8
:1020E0000B49094800F072FB08B1FEF7E0FB064817
:1020F00000F072FF002803D0BDE81040FEF7D7BB08
:1021000010BD000000000020A006002054010020A7
:1021100054000020FEE7FEE72DE9F84F044640F6A4
:102120008F7A40F2064B48F60F784FF00009A7E18E
:10213000B0F8441011F00F0539D030F825603104A3
:102140007ED530F8251001EA0A0141F0800120F81F
:10215000251005EB850004EBC00797F8740107F51F
:10216000B47700286DD0F87802286BD03A782168CF
:1021700031F8220048F68F73184048F2C003184324
:1021800021F822003978206830F821205204B0F874
:10219000502002EB00037DD540F2024202EBC10168
:1021A000595A8905890D009175D03A89C7E0C90649
:1021B0002CD4018801EA080141F400410180206823
:1021C00004F12805B0F850102A78014440F202408A
:1021D00000EBC200085AC0F309006064E16B0144DF
:1021E000E16300212046FEF78BFD94F824000028CF
:1021F0009DD0A86900289AD194F8240040F080016D
:102200002068A0F84C1084F8249039E1018804F586
:10221000B4750A051ED5B0F850102A7801440BEBAE
:10222000C200085A04F52C71C0F30903EB61EA8877
:10223000206801F0A8FC2168088800EA0A0002E092
:1022400098E05FE06CE040F0800008802046FFF7F7
:10225000CBF915E10904D8D5018801EA0A0141F05A
:10226000800101802068B0F850102A7801440BEBFF
:10227000C200085A83059B0DEB6110D0696971B1EA
:10228000EA88206801F07FFCE96968690844002158
:10229000686101E04BE049E02046FEF73AFD206826
:1022A00001880905B1D4B0F850100844296900F23A
:1022B00006403E2908D94A09C90600D1521E4FF4EA
:1022C000004141EA822108E0A1B14A08C90700D0D3
:1022D000521C4FF6FF7101EA8221018021680888B3
:1022E0004BF68F72104080F4405048F28002104349
:1022F0000880C5E0018821F4F8410180018841F49B
:102300000041EAE72068B0F850103B780A180BEB60
:10231000C301515A8905890D009114D0FA880EE045
:10232000324639462046FEF752FD00900BE00BEB9B
:10233000C101595A8905890D009104D07A897969BA
:10234000009B01F020FCF96900980844F861796964
:10235000009808447861B86918B1396900988142D9
:1023600004D939782046FEF7D4FC03E039462068CA
:1023700001F0B4F9300677D505EB850004EBC00118
:10238000206830F8252002EA080242F4004220F8D2
:10239000252091F82B002831022848D0C1F8189048
:1023A000087B4A4608B3700620D5487810B101284A
:1023B00012D03AE02068B0F8502010440A7800EBC0
:1023C000C200B0F8022422F4F842A0F80224B0F8C7
:1023D000022442F4004206E02068B0F8503018446D
:1023E0000B7800EBC300A0F802241EE04B782068B5
:1023F00013B1012B11D018E0B0F8502010440A7826
:1024000000EBC200B0F8062422F4F842A0F806243B
:10241000B0F8062442F4004205E0B0F85030184409
:102420000B7800EBC300A0F80624097820E0F00543
:1024300022D42068B0F850200B78104440F20242B9
:1024400002EBC302805A8A69C0F3090082420CD9A8
:10245000121A8A610BD04A6902444A61CA6910445F
:10246000C861206801F03AF90AE0C1F81890D9B2C1
:102470002046FEF745FC03E032462046FEF715FDF8
:102480002068B0F8441009043FF552AE0020BDE8C2
:10249000F88F704770470178407841EA0020704714
:1024A000FEF74ABB10B594B038216846FDF7CBFE65
:1024B00014210EA8FDF7C7FE4FF40070FFF7C2F815
:1024C000212000904FF480300190012006900220DE
:1024D0000324CDE907044B21CDE909010B900C90B1
:1024E0000D906846FFF77CFB08B172B6FEE70F203F
:1024F000CDE90E04002010901190129004210EA836
:10250000FFF74AFA002801D072B6FEE714B010BDFA
:102510000248016841F470010160704788ED00E0F5
:1025200010B50A46024903A000F0D4FA004810BDD5
:102530007009002043444320436F6E6669670000C2
:102540002DE9F0410C46D0F8C422D0F8BC12E9B114
:1025500004EB840600EB86050027AB693BB102EB78
:10256000C602926BB3FBF2F602FB163282B1C1F8DF
:102570001472D0F8C00203692BB1D1F808022246C8
:1025800001F5047198470020BDE8F0810320FBE7C6
:1025900000231A462146AF6100F085FCF3E770B5D1
:1025A000D0F8BC4205466CB100F073FBC4F80C02D5
:1025B000D5F8C012D4F80402CA6804F50371904734
:1025C000002070BD032070BD70B50446812100F06D
:1025D000CDFA002525870121204600F0C7FAA4F88E
:1025E00078518221204600F0C1FAA4F84C50A4F89A
:1025F0004E50D4F8BC0248B1D4F8C00204F52F7490
:1026000040688047206800F03CFE2560002070BDD7
:1026100012200880004870472400002010B5D0F830
:10262000BC4284B1D0F8C01259B194F80002FF281E
:1026300007D08B6894F8012221469847FF2084F840
:102640000002002010BD032010BD00000A210180FF
:10265000004870477C0000204321018000487047FB
:10266000CC000020432101800048704788000020F2
:102670004321018000487047100100202DE9F047F8
:1026800004464FF4077000F0FDFD05004FF0000711
:1026900035D0C4F8BC52207C4FF010084FF40079BC
:1026A000012680B3402302228121204600F048FB0E
:1026B0002687402302220121204600F041FBA4F896
:1026C0007861A4F84E80082303228221204600F07E
:1026D00037FBA4F84C60D4F8C00200688047C5F806
:1026E0001472C5F81872207CD5F80422A8B14023D2
:1026F0000121204600F030FB0020BDE8F0870220D9
:10270000C4F8BC72F9E7FFE74B460222812120465C
:1027100000F016FB26874B46CCE74B46E8E7000067
:1027200010B50A46024903A000F0D4F9004810BDD4
:102730007009002043444320496E746572666163EA
:102740006500000004200880004870472000002039
:1027500010B50A46024903A000F0BCF9004810BDBC
:1027600070090020456D6F74696F6E5F54686F72F9
:102770006E00000010B50A46024903A000F0AAF955
:10278000004810BD700900204166666C6174757365
:10279000205669727475616C20436F6D506F72744E
:1027A0000000000010B5D0F8BC1251B1027C002A24
:1027B000D1F8042207D04023012100F0CDFA0020F7
:1027C00010BD032010BD4FF40073F5E719B1C0F838
:1027D000C0120020704703207047000010B51A2077
:1027E00008800A480168001D0468001D0068081878
:1027F00009D008220649FFF70FFC054904221031D1
:102800002046FFF709FC0248801E10BD9075FF1F8F
:102810003A000020D0F8BC0218B1C0F80412002021
:10282000704703207047D0F8BC0228B1C0F81022CE
:10283000C0F8081200207047032070472DE9FC41C2
:102840000646D0F8BC7200200C468DF80000ADF8AA
:102850000400054637B1207810F0600128D0202907
:1028600044D102E00320BDE8FC81E288C2B1000649
:1028700060780AD5D6F8C0128B6839469847E28846
:10288000072A00D90722394628E087F80002A079F4
:1028900087F80102E2883946304600F06CF82AE0F9
:1028A000D6F8C012607800228B682146984722E053
:1028B000607830B101281ED00A2809D00B2815D124
:1028C00010E096F89C02032810D1022201A905E02D
:1028D00096F89C02032809D101226946304600F08F
:1028E00064F808E096F89C02032804D0214630469C
:1028F00000F036F803252846B5E710B5D0F8BC122D
:10290000012219B1D1F8143213B10FE0032010BD28
:102910000122C1F81422D1F81022C262D1F810327B
:10292000D1F80822812100F0BEFA0022104610BD25
:1029300010B5D0F8B8220AB152689047002010BDF7
:10294000134610B50A46002100F006FA002010BD1B
:10295000134610B50A46002100F0A5FA002010BD6C
:1029600010B50446802100F083FA2046BDE81040EF
:10297000002100F07DBA10B50323C0F89432C0F8EE
:1029800058211346C0F85C210A46002100F0E4F902
:10299000002010BD10B50521C0F8941200231A467E
:1029A000194600F0D9F9002010BD10B50223C0F877
:1029B000943282611346C2610A46002100F073FA24
:1029C000002010BD10B50421C0F8941200231A464F
:1029D000194600F068FA002010BDF8B50446002042
:1029E000ADF8000048880D46010A062947D006DCEC
:1029F00001290FD0022912D0032962D11DE0072935
:102A000046D00F295DD1D4F8B402C26920E06946EE
:102A100090473BE0D4F8B412207C0A68F7E7207CAA
:102A200002260028D4F8B80205D0C16A6846884753
:102A30000146467036E0816AF8E7C0B2062840D207
:102A4000DFE800F003090D111519D4F8B40242684B
:102A5000B2B3207CDBE7D4F8B4028268F8E7D4F89C
:102A6000B402C268F4E7D4F8B4020269F0E7D4F81B
:102A7000B4024269ECE7D4F8B4028269E8E7207C4A
:102A8000F0B9D4F8B802416B68468847014609E0BE
:102A9000207CA8B9D4F8B802016B68468847014683
:102AA00007204870EA888AB1BDF8000040B1824230
:102AB00000D90246ADF800202046FFF776FFF8BDAA
:102AC000FFE729462046FFF74BFFF8E72046FFF7D0
:102AD00079FFF4E770B5002300281ED000250446D6
:102AE00002E06D1CEDB2641C2678002EF9D10224A0
:102AF00004EB450414801278CA545B1C0322CA54A8
:102B000000245B1C06E0CA545B1CDAB28C54521CD5
:102B1000D3B2401C0278002AF5D170BD01004FF0FD
:102B2000000004D0012901D0022901D00320704700
:102B30000120704778B10023C0F8B832C0F8C03225
:102B4000C0F8CC3209B1C0F8B412012180F89C124F
:102B5000027000F0A3B80320704710B5D0F8C4028B
:102B6000FEF707F9BDE81040FFF7D8BF10B5D0F861
:102B7000C402FEF7D8F8BDE81040FFF7CFBF70B52C
:102B80001646044621B194F89C02032841D048E03F
:102B9000D4F8941204F114000025022932D1D0E9AE
:102BA00002318B4206D95A1A826031462046FFF71D
:102BB000CFFE0FE0994214D14068884211D3D4F877
:102BC000981288420DD2002211462046FFF7C0FE1F
:102BD000C4F8985200231A461946204600F0BCF863
:102BE00010E094F89C02032805D1D4F8B802C1681B
:102BF00009B1204688478021204600F039F9204657
:102C0000FFF7C8FE94F8A00201280AD184F8A05268
:102C100007E0D4F8B80242691AB12046904700286C
:102C200000D1002070BD10B51346044621B194F8C0
:102C30009C02032823D02AE0D4F8941204F5AA7049
:102C4000032924D1D0E9021291420AD98A1A82605A
:102C5000C068824200D3024619462046FFF770FE44
:102C600015E094F89C02032805D1D4F8B802016954
:102C700009B1204688472046FFF7A4FE07E0D4F8B4
:102C8000B80282691AB120469047002800D100207E
:102C900010BDD0F8C402FEF7A0BA000010B51E495E
:102CA0000446C1F8F002C0F8C4121C4808600820AD
:102CB0004860022088600861002048618861C8611E
:102CC00008620846FEF7CAFB08B1FDF7F0FD0022D6
:102CD000D4F8C4021823114604F53174FDF7F2FF4D
:102CE0005823002280212068FDF7ECFFC02300223A
:102CF00081212068FDF7E6FF4FF48873002201214F
:102D00002068FDF7DFFF4FF48073002282212068E6
:102D1000FDF7D8FF002010BDAC030020005C004090
:102D20000A0601F07F01D0F8C40201EB810100EB3B
:102D3000C10002D590F82A00704790F86A017047E8
:102D400010B51C461346D0F8C4022246FEF74EFAD0
:102D5000BDE81040FFF7E2BE10B5D0F8C402FEF7A0
:102D600075FABDE81040FFF7D9BE70B501250446DD
:102D700080F89C520020C4F894026060C4F8A40259
:102D8000D4F8B802E0B1D4F8BC1221B1426812B153
:102D90000021204690470022402311462046FFF79D
:102DA000CFFF4026A4F864513346002280212046FC
:102DB000C4F86061FFF7C4FFA5840020266270BDDF
:102DC000032070BD90F89C12042903D190F89D1245
:102DD00080F89C120020704710B5D0F8B81221B1CD
:102DE00090F89C22032A02D004E0032010BDC96998
:102DF00001B18847002010BD01740020704710B554
:102E0000D0F8C402FEF7DCFBBDE81040FFF786BE39
:102E100070B5044600F2AA20054600F04DF80120E6
:102E2000C4F89402B4F8B002C4F8980294F8AA0264
:102E300010F01F010AD001290ED0022912D000F093
:102E400080012046BDE8704000F012B829462046B7
:102E5000BDE8704000F0C2B829462046BDE8704089
:102E600000F0E6B929462046BDE8704000F040B9C0
:102E700010B5D0F8C402FEF702FABDE81040FFF723
:102E80004DBE10B5D0F8C402FEF7B5FBBDE810404A
:102E9000FFF744BE90F89C1280F89D12042180F840
:102EA0009C120020704710B5D0F8C402FEF717FA44
:102EB000BDE81040FFF732BE70B5054611F8010BB2
:102EC0002870087868704C1C2046FFF7E4FA688088
:102ED000A41C2046FFF7DFFAA880A01CFFF7DBFA4E
:102EE000E88070BD38B504460020ADF8000049B157
:102EF000C4F8B812C96A19B168468847C4F8CC0248
:102F0000002038BD032038BD02460320D2F8B83275
:102F1000002B02D01B681046184770472DE9F0417E
:102F20000F462C4E8978002504463170012906D9B8
:102F300039462046FFF714FD0320BDE8F08194F8E0
:102F40009C0202280CD003281DD039462046FFF7EA
:102F500007FD31782046FFF7EBFC03252846ECE718
:102F600099B320466160FFF7CFFF050004D03946D2
:102F70002046FFF7F5FCF1E72046FFF723FD03208D
:102F800084F89C02EAE74FF00208C1B16068884209
:102F90001BD0C1B22046FFF7CBFC317820466160E0
:102FA000FFF7B2FF050010D039462046FFF7D8FCE6
:102FB00021792046FFF7BCFC84F89C82CEE784F898
:102FC0009C8220466160FFF7B3FC2046FFF7FAFCC5
:102FD000C4E7000078000020FFF753BF2DE9F0415F
:102FE0000A78002512F0600208D0202A01D0402A79
:102FF00071D1D0F8B8229268904731E04B78002226
:1030000001260A2B67D2DFE803F0415E66586608A6
:1030100005662D29FFF7E1FC5FE004468888D8B9F2
:10302000C888C8B94888802816D200F07F0794F86D
:103030009C02032810D084F89E7239462046FFF780
:10304000DEFE2046FFF7BEFC1FB1022084F89C0282
:1030500043E084F89C6240E020463CE0FFF75EFFDE
:1030600005463AE0CB88012B35D190F89C32012BF4
:1030700004D0022B02D0032B2DD104E08260012268
:1030800000F1080116E00122011D13E090F89C22D6
:10309000012A03D0022A01D0032A1CD1CA88022A9D
:1030A00019D1C660D0F8A41209B10321C16002226F
:1030B00000F10C01FFF779FC0FE0498801290CD1E0
:1030C000C0F8A46211E090F89C32012B08D0022BCA
:1030D00006D0032B04D0FFF743FC2846BDE8F0815F
:1030E00049880129F9D1C0F8A422FFF76BFCF4E765
:1030F0002DE9F0410D46044628780026097910F0A4
:1031000060000BD0202801D040286DD1D4F8B8023F
:103110002946826820469047064686E06878A8B32C
:10312000012822D003287CD194F89C02022802D0E6
:10313000032876D10BE0002973D0802971D0204676
:10314000FFF796FE80212046FFF792FE6DE068882B
:1031500038B931B1802904D0E88810B92046FFF78A
:1031600087FE2046FFF72EFC5FE094F89C020228C1
:10317000E1D0032855D16888A8BB480602D0204674
:10318000FFF7EBFC2046FFF71DFCBFE7FFE794F8D5
:103190009C020027022802D0032842D111E009B185
:1031A00080293ED1080601F07F0000EB800004EB8F
:1031B000800101D5143101E001F5AA7102220F60EE
:1031C0002BE0080601F00F0000EB800004EB80000C
:1031D0000BD5808C40B101F07F0000EB800004EB48
:1031E000800514350CE020E01BE0B0F86401C0B1AC
:1031F00001F07F0000EB800004EB800505F5AA7567
:1032000041B1802906D02046FFF78AFD10B1012088
:10321000286000E02F60022229462046FFF7C5FB08
:1032200003E029462046FFF79BFB3046BDE8F081CE
:1032300070B50646087800240D4610F0600003D0F3
:10324000202801D0402817D196F89C02012803D0ED
:10325000022801D003280FD1287901280CD8D6F8EC
:10326000B8028268304690470446E888204306D179
:103270003046FFF7A7FB02E03046FFF771FB204620
:1032800070BD7047004870478C0100202DE9F04761
:103290000C78002630F8243048F68F121340CA7894
:1032A000002A7DD0012A7CD0022A02D0032A79D0BC
:1032B000012648F28002134320F824300D7830F8BC
:1032C000254048F68F731C402C43144320F82540BA
:1032D0000D7B48F2C00748F6BF744CF2800C4BF6E9
:1032E0008F79E5B3CD7891F80080022DC24630F891
:1032F00028507CD048F68F6805EA080555EA020593
:1033000020F82A50B0F8505091F80080054405EBA1
:10331000C805B1F8088028F00108A5F80084B0F8C5
:10332000505091F80080054405EBC805B1F80A80BB
:1033300028F00108A5F804844D7891F80080002D4C
:1033400030F828504FEA45457ED0002D06DA30F897
:1033500028501D4045EA0C0520F8285000E030E0D8
:1033600091F800C030F82C506D0605D530F82C507F
:103370001D403D4320F82C50CB780D78012B30F8C0
:10338000253003EA040301D083F02003134320F81F
:1033900025300B7830F8231001EA0901114302E0CF
:1033A00006E00BE007E020F823103046BDE8F08788
:1033B00043F400737DE743F4C0637AE743F480632A
:1033C00077E74D784DB3B0F8505091F800C0054400
:1033D00005EBCC05B1F806C02CF0010CA5F800C433
:1033E00091F800C030F82C506D0607D500E05BE086
:1033F00030F82C501D403D4320F82C50CB78012B49
:1034000006D00B7830F82310214081F02001C5E769
:103410000B7830F823102140C0E7B0F850400D7809
:10342000044404EBC504CD8825F00105A4F8045438
:10343000B0F850400D78044404EBC5040D6904F263
:1034400006443E2D0AD900E034E06F09ED0600D1B4
:103450007F1E4FF4004545EA872508E0E5B16F0877
:10346000ED0700D07F1C4FF6FF7505EA8725258004
:103470000D7830F82540640406D530F825401C400E
:1034800044EA0C0420F825400B7830F8231001EAB8
:10349000090181F4405181E7258825F4F84525800C
:1034A000258845F40045E2E71D4048F2801845EACA
:1034B000080525E7002D06DA30F828501D4045EABA
:1034C0000C0520F8285091F800C030F82C506D06FB
:1034D00005D530F82C501D403D4320F82C500D7878
:1034E00030F8253003EA090383F44053134320F8EE
:1034F00025308DE72DE9F04391F80C804F780A785C
:1035000048F6BF7C4BF68F7948F2800348F2C0053D
:103510004CF2800648F68F74B8F1000F28D0002FC7
:1035200030F822704FEA474748D0002F05DA30F8CC
:1035300022702740374320F822700A7830F8227032
:103540007F0605D530F8227027402F4320F82270DF
:103550000D7830F825202240324320F825200C78C1
:1035600030F8242002EA0C021A4320F824201AE042
:103570007FB130F82260760605D530F8226026400B
:103580002E4320F822600A7830F8221001EA0C015C
:103590000EE030F822506D0405D530F82250254059
:1035A000354320F822500A7830F8221001EA090148
:1035B000194320F822100020BDE8F083002F05DA1F
:1035C00030F822702740374320F822700A7830F80C
:1035D0002260760605D530F8226026402E4320F87A
:1035E00022600E7830F8262022402A4320F8262038
:1035F0000C7830F8242002EA09021A4320F824202B
:10360000C1E730F8581F41F40041018000207047A5
:10361000012120F8401F002101808180018208469D
:10362000704730F8401F4BF68072914301800020B4
:10363000704730B50A7BB2BB4A7848F68F7548F2BE
:103640008004C2B10B7830F82320520607D530F839
:1036500023202A4048F2C0052A4320F82320CA78B4
:10366000012A20D00A7830F8221048F6BF7319409A
:1036700081F0200114E00A7830F822305B0407D58D
:1036800030F822302B404CF280052B4320F82230BA
:103690000A7830F822104BF68F73194081F44051AC
:1036A000214320F82210002030BD10B54A78097857
:1036B000002A48F2800330F8212005D048F6BF7474
:1036C000224082F0100204E04BF68F74224082F414
:1036D00080521A4320F82120002010BD2DE9F04728
:1036E0000D464B78097B04464FF0000948F68F726F
:1036F00048F2800A4FF400474FF6FF78012B09D0BB
:1037000000297DD0E87802287BD001287AD00120DA
:10371000BDE8F087AE692869864200D9064691B1B6
:10372000E97802291ED0286A801B2862287834F89C
:1037300020104906B4F85010214401EBC0006ED5AA
:10374000A0F80664FFE0B3B2EA882046696900F099
:1037500035FAB4F850002978204400EBC100A0F8F5
:103760000264F6E0296A814273D9297834F821008D
:10377000104048F28012104324F82100286A801B70
:103780002862287834F820104906697876D511B176
:10379000012921D027E0B4F850103E2E214401EB3E
:1037A000C00000F2064006D97109F20600D1491E98
:1037B00047EA81210EE036B17108F20700D0491CBA
:1037C00008EA812106E0018821F4F841018001889E
:1037D00041F40041018006E0B4F85020111901EBDA
:1037E000C000A0F806646A89B3B22046696900F097
:1037F000E5F96869304468612969286A884202E00D
:10380000CCE0EBE054E102D9801B286202E00646DE
:10381000C5F82090687818B1012824D02BE028E062
:10382000B4F850002978204400EBC10000F20240B7
:103830003E2E06D97109F20600D1491E47EA8121C0
:103840000FE03EB17108F20700D0491C08EA81215F
:1038500007E08EE0018821F4F8410180018841F4FD
:103860000041018007E0B4F850002978204400EBC3
:10387000C100A0F802642A8966E0FFE711B10129BE
:1038800021D027E0B4F850103E2E214401EBC000B7
:1038900000F2024006D97109F20600D1491E47EA3A
:1038A00081210EE036B17108F20700D0491C08EA08
:1038B000812106E0018821F4F8410180018841F46A
:1038C0000041018006E0B4F85010214401EBC00033
:1038D000A0F802642A89B3B22046696900F06EF943
:1038E0006869304468612969286A884202D9801B66
:1038F000286202E00646C5F82090687810B10128D9
:1039000030D020E0B4F850002978204400EBC1000A
:1039100000F206403E2E06D97109F20600D1491E7A
:1039200047EA81210EE036B17108F20700D0491C48
:1039300008EA812106E0018821F4F841018001882C
:1039400041F4004101806A89B3B22046696900F000
:1039500035F9297834F8210048F6BF72104080F01C
:103960003000F8E0B4F850100819297800EBC100D5
:10397000E6E62A7834F8220048F68F63184040EAD9
:103980000A0024F82200B4F850002A78204400EB02
:10399000C2008BB2A0F802342A89D6E7A969286947
:1039A000814202D9091AA961B4E00846C5F8189005
:1039B000B0E000BF47EA82200EE030B14208C00705
:1039C00000D0521C08EA822006E0088820F4F84063
:1039D0000880088840F400400880B4E00BBBB4F8CD
:1039E00050002978204400EBC100296900F2024010
:1039F0003E2906D94B09C90600D15B1E47EA83213F
:103A00000EE031B14B08C90700D05B1C08EA8321E6
:103A100006E0018821F4F8410180018841F4004169
:103A20000180687810B1012823D02BE0B4F8500051
:103A30002978204400EBC100296900F206403E29A4
:103A400006D94B09C90600D15B1E47EA83210EE067
:103A500031B14B08C90700D05B1C08EA832106E09E
:103A6000018821F4F8410180018841F4004101807E
:103A700008E0B4F850100819297800EBC100298A31
:103A8000A0F80614E86978B3297834F821004304D3
:103A900001D5430603D444F24003184253D134F80D
:103AA0002100104048F2C002104324F821004AE0EF
:103AB000A9692869814202D9091AA96102E0084668
:103AC000C5F818900BBBB4F850102A78214401EBCC
:103AD000C20101F202413E2807D94209C30600D1C2
:103AE000521E47EA82220FE02DE030B14208C307A0
:103AF00000D0521C08EA822206E00A8822F4F8422A
:103B00000A800A8842F400420A80697811B10129CA
:103B100011D018E0B4F850102A78214401EBC2010A
:103B200001F206413E287FF648AF4209C0067FF405
:103B300041AF521E3EE7B4F8502011192A7801EB2C
:103B4000C201A1F80604297834F821004BF68F72DF
:103B5000104080F4405040EA0A0024F82100002080
:103B6000D6E50021A0F844104BF68071A0F8401073
:103B7000002070470148FDF7CCBB0000AC030020DB
:103B8000B0F84400704710B510445C0800F5806040
:103B900008D030F8022B01F8012B120A01F8012B92
:103BA000641EF6D1DA0701D00088087010BD11B983
:103BB0008021A0F84C1000207047000010B55B1C5D
:103BC00010445B0800F580600AD000BF11F8012B9B
:103BD00011F8014B42EA042220F8022B5B1EF5D1BA
:103BE00010BDFEE77CB50C001D461646014601D00F
:103BF000601E00E00020CDE90010064B6A46294611
:103C0000304600F0EBF8002C02D0009A0021117031
:103C10007CBD0000E34400080907090E002804DB0E
:103C200000F1E02080F80014704700F00F0000F170
:103C3000E02080F8141D704702E008C8121F08C178
:103C4000002AFAD170477047002001E001C1121F1D
:103C5000002AFBD1704700002DE9FF5F82B00021F0
:103C6000DDE90430020DDDF840B0034318D044F61E
:103C70001050A2F2FF3242431514119801281FD0B0
:103C8000A5EB0B00401C5FEA000A4FF000064E4F08
:103C9000DFF83891B046504615D5CAF1000413E05C
:103CA000119801244AA3012801D16FEA0B0102985F
:103CB000119AC0E90031C0E9024206B0BDE8F09FA8
:103CC000CBF10000DFE704460021404A491842EBEF
:103CD0000450CDE9001012E0E00707D032463B4621
:103CE00040464946FCF7A8FB8046894632463B469B
:103CF00010461946FCF7A0FB06460F466410002C40
:103D0000EAD1DDE90401DDE90023BAF1000F06DAAA
:103D1000FCF792FB42464B46FCF78EFB05E0FCF7B6
:103D2000FDFB42464B46FCF7F9FB04460E460022DB
:103D3000284BFCF77BFC03D84FF0FF30014607E02F
:103D40000022254B20463146FCF7CFFAFCF755FC04
:103D5000102409E0002C0ADB0A220023FCF794FA65
:103D6000039B30321A55641E50EA0102F2D1641CE2
:103D7000039AC4F111031444119A012A03D00122B9
:103D800008430DD10AE0084304D000204FF0110B86
:103D9000119072E7A3EB0B056D1E0DE05B4504DD92
:103DA0004FF0000205F1010504E003DA4FF00002D4
:103DB000A5F10105002AECD002981199C0E9023161
:103DC000C0E9004579E70000000014400000F03F22
:103DD000300000000000F0430000E03F2DE9FF4FFD
:103DE00095B09A46884606460025EEE1252877D10B
:103DF00000242746F94A0121039400E0044316F801
:103E0000013F203B01FA03F01042F7D130782A2815
:103E100011D06FF02F033078A0F13002092A16D8A4
:103E2000039A44F0020402EB820203EB42021044C4
:103E3000761C0390EFE758F8042B0392002A03DA6C
:103E4000504244F40054039044F00204761C30784D
:103E50002E2816D116F8010F44F004042A280DD09C
:103E60006FF02F023078A0F13003092B09D807EB4F
:103E7000870302EB4303C718761CF3E758F8047B6B
:103E8000761C30786C280FD006DC4C2817D06828B8
:103E90000DD06A2814D104E0742810D07A280FD1EC
:103EA0000DE044F400140AE044F4801401E044F40A
:103EB00040147278824202D104F58014761C761C7C
:103EC000307866280BD013DC582877D009DC00281E
:103ED00075D04528F6D04628F4D047281AD193E16A
:103EE00018E0632835D0642879D0652812D18BE199
:103EF000702873D008DC6728F1D069286FD06E284D
:103F00000DD06F2806D1ACE073282CD0752874D062
:103F1000782853D05246179990476D1C54E1C4F34A
:103F20000250022809D003280DD0D8F80010042828
:103F30000DD00D6008F1040846E1D8F80010EA172A
:103F4000C1E90052F6E7D8F800100D80F2E70D70D5
:103F5000F0E718F8041B8DF8001000208DF8010020
:103F6000EB46012003E058F804BB4FF0FF30610737
:103F70004FF0000102D40DE009F101018946B94278
:103F80000FDA8145F8DB1BF809100029F4D108E0AD
:103F900009F1010189468142FADB1BF80910002969
:103FA000F6D103985346A0EB090721463846179AE5
:103FB00000F080FA284400EB090507E044E008E13E
:103FC0000DE01BF8010B524617999047B9F1010912
:103FD000F7D2534621463846179AF2E039E00A21D3
:103FE000C4F302524FF0000B0091022A06D058F899
:103FF000040BC117032A09D00AE023E008F10700E7
:1040000020F00702F2E80201904605E000B2C11775
:10401000042A01D140B2C117002906DA0A4600215C
:10402000404261EB02012D2202E0220504D52B2241
:104030008DF80420012203E0E20701D02022F7E7F7
:10404000914657E00A2100E010214FF0000B00914B
:104050000BE010214FF0000B44F0040408270091FE
:1040600003E008204FF0000B0090C4F30252022A34
:1040700005D058F8040B0021032A08D008E008F105
:10408000070020F00702F2E80201904603E080B248
:10409000042A00D1C0B24FF0000922072AD5327895
:1040A000702A07D0DDF800C08CF0100C5CEA0B0C15
:1040B00005D00EE040228DF80420012208E050EAED
:1040C000010306D030238DF804308DF8052002223C
:1040D0009146009B83F0080353EA0B030AD150EA90
:1040E000010201D1620705D530228DF804204FF07E
:1040F00001097F1E3278582A04D039A20C920CAAEA
:1041000002920BE03BA2F9E75B46009AFCF7BCF891
:104110000C9B9B5C029A521E0292137050EA0102A1
:10412000F2D1029804A9081A00F1200B600702D509
:1041300024F4803400E001275F4502DDA7EB0B008B
:1041400000E0002000EB0B01009003984944401A66
:104150000390E00306D453462146179A039800F0D3
:10416000A9F90544002706E001A85246C05D179949
:1041700090476D1C7F1C4F45F6DBE0030CD5534682
:104180002146179A039800F095F9054404E0302081
:104190005246179990476D1C0099481E00900029BF
:1041A000F5DC08E00298029952460078491C029119
:1041B000179990476D1CBBF10001ABF1010BF1DCCD
:1041C0005BE100F065F90544761C307800287FF447
:1041D0000DAE19B02846BDE8F08F00000928010097
:1041E000303132333435363738396162636465666D
:1041F000000000003031323334353637383941422F
:104200004344454600000000600700D4062708F13B
:10421000070020F00700F0E80223804603F0004C7E
:104220005FEA0C0001D097A009E0200501D596A017
:1042300005E0E00701D095A001E0AFF24C0013903B
:10424000307823F0004365280CD006DC452809D0DF
:1042500046281DD047287FD13BE0662818D0672824
:104260007AD136E00021112F01DB112000E0781C0B
:10427000CDE9000104A90CA8FFF7EEFCDDE90D0172
:104280000C9A4FF0000B07F10109109200914EE0DB
:104290004FF000400097CDE9011004A90CA8FFF7EA
:1042A000DBFCDDE90D020C9B0F994FF0000B9146F2
:1042B0001093009211B9791C00EB0109B7EB0900CA
:1042C00003D4C0F1FF3B07F10109A9EB07000190FE
:1042D00042E0012F00DA01270021112F01DD11201A
:1042E00000E03846CDE9000104A90CA8FFF7B4FCB2
:1042F000DDE90D010C9A00914FF0000BB9461092C8
:1043000021070FD4009A4A4503DA914601E0A9F14A
:104310000109B9F1010F05DD109AA9F10101515C04
:104320003029F4D0B84202DA10F1040F03DA012187
:10433000CDE9011010E0002803DC8344A9EB000163
:1043400002E0411C494500DD8946A0EB0B00401C02
:1043500001904FF000400290200705D40198484595
:1043600002DB4FF0FF30019000208DF84B000298E7
:104370000DF14B07B0F1004F25D002200C902B20FF
:104380000D90029800280CDA404202902D200D90EA
:1043900007E00A210298FBF761FF3031029007F82D
:1043A000011D0C99481E0C900029F2DC029800288F
:1043B000EFD1791E0D980870307800F0200040F0A1
:1043C000450007F8020D11A8C01BC01D02901398EC
:1043D000007800B1012000EB0901019801EBE071C8
:1043E000029801440398401A401E0390E00306D44B
:1043F00053462146179A039800F05CF80544139839
:10440000007818B15246179990476D1CE00323D5E8
:1044100053462146179A039800F04CF805441BE0D8
:10442000BBF1000F07DB0098584504DD1098179981
:1044300010F80B0001E01799302052469047019880
:104440000BF1010B401E05F10105019004D12E2056
:104450005246179990476D1CB9F10001A9F1010965
:10446000DEDC05E017F8010B5246179990476D1CEA
:104470000299481E02900029F4DC53462146179AFF
:1044800003989EE62D0000002B0000002000000095
:104490002DE9F041044600251E461746880404D441
:1044A00005E039462020B0476D1C641EF9D528462A
:1044B000BDE8F0812DE9F041044600251E469046F6
:1044C000C80301D5302700E02027880404D505E083
:1044D00041463846B0476D1C641EF9D52846BDE8F4
:1044E000F0814A68002A06D00A68531C0B601070DD
:1044F0004868401E48607047FCF726FBFDF7D2FF76
:10450000FDF7A6FDFDF7DCFD0B4C40F2F315022094
:10451000FCF7D0F9012210212046FCF701FB2846C8
:10452000FCF7C8F9002210212046FCF7F9FA03A095
:1045300000F00CF8EBE70000000800485553425F1C
:104540005650435F546573740D0A00000FB44FF466
:10455000806110B503AB0548029AFFF743FB81B2B7
:104560000248FCF78DF910BC5DF814FB700F0020B9
:104570000000000000000000010203040607080913
:10458000A0450008000000208C0100009C070008E6
:10459000644600088C010020E4150000483C000837
:1045A000131126140845271B0851041A75041ADD37
:1045B000041B2125041908411704030904120114DE
:1045C000020202164083044057260201020301033F
:1045D0001A1A0313FD071B08F9041AF5041321081E
:1045E0001B08610432101937615324F4130A063290
:1045F000022A40181C0902435B111DC0320904291C
:104600001A020B13052416100105240110090104D8
:10461000240202052406170107058203081C10095D
:104620000491320A1D07050102432C070581070981
:1046300038442A40072A8107112B0907440A3B0402
:1046400044137D261408C92514083D2842081A1D64
:10465000101A41101A9F04C11A65181A59041A71C8
:04466000041A4D04E7
:04000005080001D915
:00000001FF
